{
  "_format": "hh-sol-artifact-1",
  "contractName": "contractLong",
  "sourceName": "contracts/contractLong.sol",
  "abi": [
    {
      "inputs": [
        {
          "internalType": "address",
          "name": "_cEth",
          "type": "address"
        },
        {
          "internalType": "address",
          "name": "_cTokenBorrow",
          "type": "address"
        },
        {
          "internalType": "address",
          "name": "_tokenBorrow",
          "type": "address"
        },
        {
          "internalType": "uint256",
          "name": "_decimals",
          "type": "uint256"
        }
      ],
      "stateMutability": "nonpayable",
      "type": "constructor"
    },
    {
      "inputs": [],
      "name": "Weth",
      "outputs": [
        {
          "internalType": "contract IERC20",
          "name": "",
          "type": "address"
        }
      ],
      "stateMutability": "view",
      "type": "function"
    },
    {
      "inputs": [],
      "name": "cEth",
      "outputs": [
        {
          "internalType": "contract CEth",
          "name": "",
          "type": "address"
        }
      ],
      "stateMutability": "view",
      "type": "function"
    },
    {
      "inputs": [],
      "name": "cTokenBorrow",
      "outputs": [
        {
          "internalType": "contract CErc20",
          "name": "",
          "type": "address"
        }
      ],
      "stateMutability": "view",
      "type": "function"
    },
    {
      "inputs": [
        {
          "internalType": "uint256",
          "name": "uniswapTransactionDeadline",
          "type": "uint256"
        }
      ],
      "name": "claimProfits",
      "outputs": [],
      "stateMutability": "nonpayable",
      "type": "function"
    },
    {
      "inputs": [],
      "name": "comptroller",
      "outputs": [
        {
          "internalType": "contract Comptroller",
          "name": "",
          "type": "address"
        }
      ],
      "stateMutability": "view",
      "type": "function"
    },
    {
      "inputs": [],
      "name": "decimals",
      "outputs": [
        {
          "internalType": "uint256",
          "name": "",
          "type": "uint256"
        }
      ],
      "stateMutability": "view",
      "type": "function"
    },
    {
      "inputs": [],
      "name": "getAccountLiquidity",
      "outputs": [
        {
          "internalType": "uint256",
          "name": "liquidity",
          "type": "uint256"
        },
        {
          "internalType": "uint256",
          "name": "shortfall",
          "type": "uint256"
        }
      ],
      "stateMutability": "view",
      "type": "function"
    },
    {
      "inputs": [],
      "name": "getBorrowBalance",
      "outputs": [
        {
          "internalType": "uint256",
          "name": "",
          "type": "uint256"
        }
      ],
      "stateMutability": "nonpayable",
      "type": "function"
    },
    {
      "inputs": [],
      "name": "getMaxBorrow",
      "outputs": [
        {
          "internalType": "uint256",
          "name": "",
          "type": "uint256"
        }
      ],
      "stateMutability": "view",
      "type": "function"
    },
    {
      "inputs": [],
      "name": "getSuppliedBalance",
      "outputs": [
        {
          "internalType": "uint256",
          "name": "",
          "type": "uint256"
        }
      ],
      "stateMutability": "nonpayable",
      "type": "function"
    },
    {
      "inputs": [
        {
          "internalType": "uint256",
          "name": "borrowAmount",
          "type": "uint256"
        },
        {
          "internalType": "uint256",
          "name": "uniswapTransactionDeadline",
          "type": "uint256"
        }
      ],
      "name": "goLong_ETH",
      "outputs": [],
      "stateMutability": "nonpayable",
      "type": "function"
    },
    {
      "inputs": [],
      "name": "owner",
      "outputs": [
        {
          "internalType": "address",
          "name": "",
          "type": "address"
        }
      ],
      "stateMutability": "view",
      "type": "function"
    },
    {
      "inputs": [],
      "name": "pricefeed",
      "outputs": [
        {
          "internalType": "contract PriceFeed",
          "name": "",
          "type": "address"
        }
      ],
      "stateMutability": "view",
      "type": "function"
    },
    {
      "inputs": [],
      "name": "supply",
      "outputs": [],
      "stateMutability": "payable",
      "type": "function"
    },
    {
      "inputs": [],
      "name": "tokenBorrow",
      "outputs": [
        {
          "internalType": "contract IERC20",
          "name": "",
          "type": "address"
        }
      ],
      "stateMutability": "view",
      "type": "function"
    },
    {
      "inputs": [],
      "name": "uniswapRouter",
      "outputs": [
        {
          "internalType": "contract IUniswapV2Router",
          "name": "",
          "type": "address"
        }
      ],
      "stateMutability": "view",
      "type": "function"
    },
    {
      "inputs": [],
      "name": "withdraw_DAI",
      "outputs": [],
      "stateMutability": "nonpayable",
      "type": "function"
    },
    {
      "stateMutability": "payable",
      "type": "receive"
    }
  ],
  "bytecode": "0x6080604052733d9819210a31b4961b30ef54be2aed79b9c9cd3b600560006101000a81548173ffffffffffffffffffffffffffffffffffffffff021916908373ffffffffffffffffffffffffffffffffffffffff16021790555073922018674c12a7f0d394ebeef9b58f186cde13c1600660006101000a81548173ffffffffffffffffffffffffffffffffffffffff021916908373ffffffffffffffffffffffffffffffffffffffff160217905550737a250d5630b4cf539739df2c5dacb4c659f2488d600760006101000a81548173ffffffffffffffffffffffffffffffffffffffff021916908373ffffffffffffffffffffffffffffffffffffffff16021790555073c02aaa39b223fe8d0a0e5c4f27ead9083c756cc2600860006101000a81548173ffffffffffffffffffffffffffffffffffffffff021916908373ffffffffffffffffffffffffffffffffffffffff1602179055503480156200016557600080fd5b50604051620030c0380380620030c083398181016040528101906200018b9190620005bb565b836000806101000a81548173ffffffffffffffffffffffffffffffffffffffff021916908373ffffffffffffffffffffffffffffffffffffffff16021790555082600160006101000a81548173ffffffffffffffffffffffffffffffffffffffff021916908373ffffffffffffffffffffffffffffffffffffffff16021790555081600260006101000a81548173ffffffffffffffffffffffffffffffffffffffff021916908373ffffffffffffffffffffffffffffffffffffffff160217905550806003819055506000600167ffffffffffffffff81111562000298577f4e487b7100000000000000000000000000000000000000000000000000000000600052604160045260246000fd5b604051908082528060200260200182016040528015620002c75781602001602082028036833780820191505090505b50905060008054906101000a900473ffffffffffffffffffffffffffffffffffffffff168160008151811062000326577f4e487b7100000000000000000000000000000000000000000000000000000000600052603260045260246000fd5b602002602001019073ffffffffffffffffffffffffffffffffffffffff16908173ffffffffffffffffffffffffffffffffffffffff16815250506000600560009054906101000a900473ffffffffffffffffffffffffffffffffffffffff1673ffffffffffffffffffffffffffffffffffffffff1663c2998238836040518263ffffffff1660e01b8152600401620003bf919062000728565b600060405180830381600087803b158015620003da57600080fd5b505af1158015620003ef573d6000803e3d6000fd5b505050506040513d6000823e3d601f19601f820116820180604052508101906200041a919062000627565b60008151811062000454577f4e487b7100000000000000000000000000000000000000000000000000000000600052603260045260246000fd5b6020026020010151146200049f576040517f08c379a000000000000000000000000000000000000000000000000000000000815260040162000496906200074c565b60405180910390fd5b33600460006101000a81548173ffffffffffffffffffffffffffffffffffffffff021916908373ffffffffffffffffffffffffffffffffffffffff160217905550505050505062000921565b600062000502620004fc8462000797565b6200076e565b905080838252602082019050828560208602820111156200052257600080fd5b60005b858110156200055657816200053b8882620005a4565b84526020840193506020830192505060018101905062000525565b5050509392505050565b6000815190506200057181620008ed565b92915050565b600082601f8301126200058957600080fd5b81516200059b848260208601620004eb565b91505092915050565b600081519050620005b58162000907565b92915050565b60008060008060808587031215620005d257600080fd5b6000620005e28782880162000560565b9450506020620005f58782880162000560565b9350506040620006088782880162000560565b92505060606200061b87828801620005a4565b91505092959194509250565b6000602082840312156200063a57600080fd5b600082015167ffffffffffffffff8111156200065557600080fd5b620006638482850162000577565b91505092915050565b60006200067a838362000686565b60208301905092915050565b620006918162000810565b82525050565b6000620006a482620007d6565b620006b08185620007ee565b9350620006bd83620007c6565b8060005b83811015620006f4578151620006d888826200066c565b9750620006e583620007e1565b925050600181019050620006c1565b5085935050505092915050565b600062000710602083620007ff565b91506200071d82620008c4565b602082019050919050565b6000602082019050818103600083015262000744818462000697565b905092915050565b60006020820190508181036000830152620007678162000701565b9050919050565b60006200077a6200078d565b90506200078882826200084e565b919050565b6000604051905090565b600067ffffffffffffffff821115620007b557620007b462000884565b5b602082029050602081019050919050565b6000819050602082019050919050565b600081519050919050565b6000602082019050919050565b600082825260208201905092915050565b600082825260208201905092915050565b60006200081d8262000824565b9050919050565b600073ffffffffffffffffffffffffffffffffffffffff82169050919050565b6000819050919050565b6200085982620008b3565b810181811067ffffffffffffffff821117156200087b576200087a62000884565b5b80604052505050565b7f4e487b7100000000000000000000000000000000000000000000000000000000600052604160045260246000fd5b6000601f19601f8301169050919050565b7f436f6d7074726f6c6c65722e656e7465724d61726b657473206661696c65642e600082015250565b620008f88162000810565b81146200090457600080fd5b50565b620009128162000844565b81146200091e57600080fd5b50565b61278f80620009316000396000f3fe6080604052600436106101025760003560e01c80635fe3b56711610095578063af833d4211610064578063af833d42146102f0578063ca2065911461031b578063da839c9714610346578063e00a98991461036f578063fd6bac701461038657610109565b80635fe3b56714610244578063735de9f71461026f5780638da5cb5b1461029a578063a44026a3146102c557610109565b8063313ce567116100d1578063313ce56714610198578063349849a3146101c35780634252b452146101ee578063590f21131461021957610109565b8063047fc9aa1461010e578063239e55611461011857806324d6db47146101415780632fd4cda71461016c57610109565b3661010957005b600080fd5b6101166103b1565b005b34801561012457600080fd5b5061013f600480360381019061013a9190611b2d565b610434565b005b34801561014d57600080fd5b506101566109b1565b6040516101639190611e94565b60405180910390f35b34801561017857600080fd5b506101816109d7565b60405161018f9291906120c6565b60405180910390f35b3480156101a457600080fd5b506101ad610ae0565b6040516101ba9190612051565b60405180910390f35b3480156101cf57600080fd5b506101d8610ae6565b6040516101e59190611e94565b60405180910390f35b3480156101fa57600080fd5b50610203610b0c565b6040516102109190612051565b60405180910390f35b34801561022557600080fd5b5061022e610bbf565b60405161023b9190611eca565b60405180910390f35b34801561025057600080fd5b50610259610be5565b6040516102669190611e79565b60405180910390f35b34801561027b57600080fd5b50610284610c0b565b6040516102919190611eaf565b60405180910390f35b3480156102a657600080fd5b506102af610c31565b6040516102bc9190611dff565b60405180910390f35b3480156102d157600080fd5b506102da610c57565b6040516102e79190611e5e565b60405180910390f35b3480156102fc57600080fd5b50610305610c7b565b6040516103129190612051565b60405180910390f35b34801561032757600080fd5b50610330610ee7565b60405161033d9190612051565b60405180910390f35b34801561035257600080fd5b5061036d60048036038101906103689190611adb565b610f9b565b005b34801561037b57600080fd5b5061038461178a565b005b34801561039257600080fd5b5061039b611976565b6040516103a89190611e43565b60405180910390f35b60008054906101000a900473ffffffffffffffffffffffffffffffffffffffff1673ffffffffffffffffffffffffffffffffffffffff16631249c58b346040518263ffffffff1660e01b81526004016000604051808303818588803b15801561041957600080fd5b505af115801561042d573d6000803e3d6000fd5b5050505050565b600460009054906101000a900473ffffffffffffffffffffffffffffffffffffffff1673ffffffffffffffffffffffffffffffffffffffff163373ffffffffffffffffffffffffffffffffffffffff16146104c4576040517f08c379a00000000000000000000000000000000000000000000000000000000081526004016104bb90612031565b60405180910390fd5b6000600160009054906101000a900473ffffffffffffffffffffffffffffffffffffffff1673ffffffffffffffffffffffffffffffffffffffff1663c5ebeaec600354600a610513919061220e565b8561051e919061232c565b6040518263ffffffff1660e01b815260040161053a9190612051565b602060405180830381600087803b15801561055457600080fd5b505af1158015610568573d6000803e3d6000fd5b505050506040513d601f19601f8201168201806040525081019061058c9190611b04565b146105cc576040517f08c379a00000000000000000000000000000000000000000000000000000000081526004016105c390611f91565b60405180910390fd5b6000600260009054906101000a900473ffffffffffffffffffffffffffffffffffffffff1673ffffffffffffffffffffffffffffffffffffffff166370a08231306040518263ffffffff1660e01b81526004016106299190611dff565b60206040518083038186803b15801561064157600080fd5b505afa158015610655573d6000803e3d6000fd5b505050506040513d601f19601f820116820180604052508101906106799190611b04565b9050600260009054906101000a900473ffffffffffffffffffffffffffffffffffffffff1673ffffffffffffffffffffffffffffffffffffffff1663095ea7b3600760009054906101000a900473ffffffffffffffffffffffffffffffffffffffff16836040518363ffffffff1660e01b81526004016106fa929190611e1a565b602060405180830381600087803b15801561071457600080fd5b505af1158015610728573d6000803e3d6000fd5b505050506040513d601f19601f8201168201806040525081019061074c9190611ab2565b506000600267ffffffffffffffff811115610790577f4e487b7100000000000000000000000000000000000000000000000000000000600052604160045260246000fd5b6040519080825280602002602001820160405280156107be5781602001602082028036833780820191505090505b509050600260009054906101000a900473ffffffffffffffffffffffffffffffffffffffff168160008151811061081e577f4e487b7100000000000000000000000000000000000000000000000000000000600052603260045260246000fd5b602002602001019073ffffffffffffffffffffffffffffffffffffffff16908173ffffffffffffffffffffffffffffffffffffffff1681525050600860009054906101000a900473ffffffffffffffffffffffffffffffffffffffff16816001815181106108b5577f4e487b7100000000000000000000000000000000000000000000000000000000600052603260045260246000fd5b602002602001019073ffffffffffffffffffffffffffffffffffffffff16908173ffffffffffffffffffffffffffffffffffffffff1681525050600760009054906101000a900473ffffffffffffffffffffffffffffffffffffffff1673ffffffffffffffffffffffffffffffffffffffff166318cbafe58360018430886040518663ffffffff1660e01b815260040161095395949392919061206c565b600060405180830381600087803b15801561096d57600080fd5b505af1158015610981573d6000803e3d6000fd5b505050506040513d6000823e3d601f19601f820116820180604052508101906109aa9190611a71565b5050505050565b600260009054906101000a900473ffffffffffffffffffffffffffffffffffffffff1681565b6000806000806000600560009054906101000a900473ffffffffffffffffffffffffffffffffffffffff1673ffffffffffffffffffffffffffffffffffffffff16635ec88c79306040518263ffffffff1660e01b8152600401610a3a9190611dff565b60606040518083038186803b158015610a5257600080fd5b505afa158015610a66573d6000803e3d6000fd5b505050506040513d601f19601f82011682018060405250810190610a8a9190611b69565b92509250925060008314610ad3576040517f08c379a0000000000000000000000000000000000000000000000000000000008152600401610aca90611f31565b60405180910390fd5b8181945094505050509091565b60035481565b600860009054906101000a900473ffffffffffffffffffffffffffffffffffffffff1681565b60008060009054906101000a900473ffffffffffffffffffffffffffffffffffffffff1673ffffffffffffffffffffffffffffffffffffffff16633af9e669306040518263ffffffff1660e01b8152600401610b689190611dff565b602060405180830381600087803b158015610b8257600080fd5b505af1158015610b96573d6000803e3d6000fd5b505050506040513d601f19601f82011682018060405250810190610bba9190611b04565b905090565b600660009054906101000a900473ffffffffffffffffffffffffffffffffffffffff1681565b600560009054906101000a900473ffffffffffffffffffffffffffffffffffffffff1681565b600760009054906101000a900473ffffffffffffffffffffffffffffffffffffffff1681565b600460009054906101000a900473ffffffffffffffffffffffffffffffffffffffff1681565b60008054906101000a900473ffffffffffffffffffffffffffffffffffffffff1681565b600080600080600560009054906101000a900473ffffffffffffffffffffffffffffffffffffffff1673ffffffffffffffffffffffffffffffffffffffff16635ec88c79306040518263ffffffff1660e01b8152600401610cdc9190611dff565b60606040518083038186803b158015610cf457600080fd5b505afa158015610d08573d6000803e3d6000fd5b505050506040513d601f19601f82011682018060405250810190610d2c9190611b69565b92509250925060008314610d75576040517f08c379a0000000000000000000000000000000000000000000000000000000008152600401610d6c90611fb1565b60405180910390fd5b60008211610db8576040517f08c379a0000000000000000000000000000000000000000000000000000000008152600401610daf90611f51565b60405180910390fd5b60008114610dfb576040517f08c379a0000000000000000000000000000000000000000000000000000000008152600401610df290611f71565b60405180910390fd5b6000600660009054906101000a900473ffffffffffffffffffffffffffffffffffffffff1673ffffffffffffffffffffffffffffffffffffffff1663fc57d4df600160009054906101000a900473ffffffffffffffffffffffffffffffffffffffff166040518263ffffffff1660e01b8152600401610e7a9190611dff565b60206040518083038186803b158015610e9257600080fd5b505afa158015610ea6573d6000803e3d6000fd5b505050506040513d601f19601f82011682018060405250810190610eca9190611b04565b905060008184610eda919061218a565b9050809550505050505090565b6000600160009054906101000a900473ffffffffffffffffffffffffffffffffffffffff1673ffffffffffffffffffffffffffffffffffffffff166317bfdfbc306040518263ffffffff1660e01b8152600401610f449190611dff565b602060405180830381600087803b158015610f5e57600080fd5b505af1158015610f72573d6000803e3d6000fd5b505050506040513d601f19601f82011682018060405250810190610f969190611b04565b905090565b600460009054906101000a900473ffffffffffffffffffffffffffffffffffffffff1673ffffffffffffffffffffffffffffffffffffffff163373ffffffffffffffffffffffffffffffffffffffff161461102b576040517f08c379a000000000000000000000000000000000000000000000000000000000815260040161102290612031565b60405180910390fd5b6000600267ffffffffffffffff81111561106e577f4e487b7100000000000000000000000000000000000000000000000000000000600052604160045260246000fd5b60405190808252806020026020018201604052801561109c5781602001602082028036833780820191505090505b509050600860009054906101000a900473ffffffffffffffffffffffffffffffffffffffff16816000815181106110fc577f4e487b7100000000000000000000000000000000000000000000000000000000600052603260045260246000fd5b602002602001019073ffffffffffffffffffffffffffffffffffffffff16908173ffffffffffffffffffffffffffffffffffffffff1681525050600260009054906101000a900473ffffffffffffffffffffffffffffffffffffffff1681600181518110611193577f4e487b7100000000000000000000000000000000000000000000000000000000600052603260045260246000fd5b602002602001019073ffffffffffffffffffffffffffffffffffffffff16908173ffffffffffffffffffffffffffffffffffffffff1681525050600760009054906101000a900473ffffffffffffffffffffffffffffffffffffffff1673ffffffffffffffffffffffffffffffffffffffff16637ff36ab54760018430876040518663ffffffff1660e01b81526004016112309493929190611ee5565b6000604051808303818588803b15801561124957600080fd5b505af115801561125d573d6000803e3d6000fd5b50505050506040513d6000823e3d601f19601f820116820180604052508101906112879190611a71565b506000600160009054906101000a900473ffffffffffffffffffffffffffffffffffffffff1673ffffffffffffffffffffffffffffffffffffffff166317bfdfbc306040518263ffffffff1660e01b81526004016112e59190611dff565b602060405180830381600087803b1580156112ff57600080fd5b505af1158015611313573d6000803e3d6000fd5b505050506040513d601f19601f820116820180604052508101906113379190611b04565b905080600260009054906101000a900473ffffffffffffffffffffffffffffffffffffffff1673ffffffffffffffffffffffffffffffffffffffff166370a08231306040518263ffffffff1660e01b81526004016113959190611dff565b60206040518083038186803b1580156113ad57600080fd5b505afa1580156113c1573d6000803e3d6000fd5b505050506040513d601f19601f820116820180604052508101906113e59190611b04565b11611425576040517f08c379a000000000000000000000000000000000000000000000000000000000815260040161141c90612011565b60405180910390fd5b600260009054906101000a900473ffffffffffffffffffffffffffffffffffffffff1673ffffffffffffffffffffffffffffffffffffffff1663095ea7b3600160009054906101000a900473ffffffffffffffffffffffffffffffffffffffff16836040518363ffffffff1660e01b81526004016114a4929190611e1a565b602060405180830381600087803b1580156114be57600080fd5b505af11580156114d2573d6000803e3d6000fd5b505050506040513d601f19601f820116820180604052508101906114f69190611ab2565b506000600160009054906101000a900473ffffffffffffffffffffffffffffffffffffffff1673ffffffffffffffffffffffffffffffffffffffff16630e752702836040518263ffffffff1660e01b81526004016115549190612051565b602060405180830381600087803b15801561156e57600080fd5b505af1158015611582573d6000803e3d6000fd5b505050506040513d601f19601f820116820180604052508101906115a69190611b04565b146115e6576040517f08c379a00000000000000000000000000000000000000000000000000000000081526004016115dd90611ff1565b60405180910390fd5b60008060009054906101000a900473ffffffffffffffffffffffffffffffffffffffff1673ffffffffffffffffffffffffffffffffffffffff16633af9e669306040518263ffffffff1660e01b81526004016116429190611dff565b602060405180830381600087803b15801561165c57600080fd5b505af1158015611670573d6000803e3d6000fd5b505050506040513d601f19601f820116820180604052508101906116949190611b04565b905060008060009054906101000a900473ffffffffffffffffffffffffffffffffffffffff1673ffffffffffffffffffffffffffffffffffffffff1663852a12e3836040518263ffffffff1660e01b81526004016116f29190612051565b602060405180830381600087803b15801561170c57600080fd5b505af1158015611720573d6000803e3d6000fd5b505050506040513d601f19601f820116820180604052508101906117449190611b04565b14611784576040517f08c379a000000000000000000000000000000000000000000000000000000000815260040161177b90611fd1565b60405180910390fd5b50505050565b600460009054906101000a900473ffffffffffffffffffffffffffffffffffffffff1673ffffffffffffffffffffffffffffffffffffffff163373ffffffffffffffffffffffffffffffffffffffff161461181a576040517f08c379a000000000000000000000000000000000000000000000000000000000815260040161181190612031565b60405180910390fd5b600260009054906101000a900473ffffffffffffffffffffffffffffffffffffffff1673ffffffffffffffffffffffffffffffffffffffff1663a9059cbb33600260009054906101000a900473ffffffffffffffffffffffffffffffffffffffff1673ffffffffffffffffffffffffffffffffffffffff166370a08231306040518263ffffffff1660e01b81526004016118b49190611dff565b60206040518083038186803b1580156118cc57600080fd5b505afa1580156118e0573d6000803e3d6000fd5b505050506040513d601f19601f820116820180604052508101906119049190611b04565b6040518363ffffffff1660e01b8152600401611921929190611e1a565b602060405180830381600087803b15801561193b57600080fd5b505af115801561194f573d6000803e3d6000fd5b505050506040513d601f19601f820116820180604052508101906119739190611ab2565b50565b600160009054906101000a900473ffffffffffffffffffffffffffffffffffffffff1681565b60006119af6119aa84612114565b6120ef565b905080838252602082019050828560208602820111156119ce57600080fd5b60005b858110156119fe57816119e48882611a5c565b8452602084019350602083019250506001810190506119d1565b5050509392505050565b600082601f830112611a1957600080fd5b8151611a2984826020860161199c565b91505092915050565b600081519050611a418161272b565b92915050565b600081359050611a5681612742565b92915050565b600081519050611a6b81612742565b92915050565b600060208284031215611a8357600080fd5b600082015167ffffffffffffffff811115611a9d57600080fd5b611aa984828501611a08565b91505092915050565b600060208284031215611ac457600080fd5b6000611ad284828501611a32565b91505092915050565b600060208284031215611aed57600080fd5b6000611afb84828501611a47565b91505092915050565b600060208284031215611b1657600080fd5b6000611b2484828501611a5c565b91505092915050565b60008060408385031215611b4057600080fd5b6000611b4e85828601611a47565b9250506020611b5f85828601611a47565b9150509250929050565b600080600060608486031215611b7e57600080fd5b6000611b8c86828701611a5c565b9350506020611b9d86828701611a5c565b9250506040611bae86828701611a5c565b9150509250925092565b6000611bc48383611bd0565b60208301905092915050565b611bd981612386565b82525050565b611be881612386565b82525050565b6000611bf982612150565b611c038185612168565b9350611c0e83612140565b8060005b83811015611c3f578151611c268882611bb8565b9750611c318361215b565b925050600181019050611c12565b5085935050505092915050565b611c55816123ce565b82525050565b611c64816123f2565b82525050565b611c7381612416565b82525050565b611c828161243a565b82525050565b611c918161245e565b82525050565b611ca081612482565b82525050565b611caf816124a6565b82525050565b6000611cc2600583612179565b9150611ccd82612594565b602082019050919050565b6000611ce5600d83612179565b9150611cf0826125bd565b602082019050919050565b6000611d08600d83612179565b9150611d13826125e6565b602082019050919050565b6000611d2b603983612179565b9150611d368261260f565b604082019050919050565b6000611d4e601283612179565b9150611d598261265e565b602082019050919050565b6000611d71600d83612179565b9150611d7c82612687565b602082019050919050565b6000611d94600c83612179565b9150611d9f826126b0565b602082019050919050565b6000611db7601083612179565b9150611dc2826126d9565b602082019050919050565b6000611dda601883612179565b9150611de582612702565b602082019050919050565b611df9816123c4565b82525050565b6000602082019050611e146000830184611bdf565b92915050565b6000604082019050611e2f6000830185611bdf565b611e3c6020830184611df0565b9392505050565b6000602082019050611e586000830184611c4c565b92915050565b6000602082019050611e736000830184611c5b565b92915050565b6000602082019050611e8e6000830184611c6a565b92915050565b6000602082019050611ea96000830184611c79565b92915050565b6000602082019050611ec46000830184611c88565b92915050565b6000602082019050611edf6000830184611c97565b92915050565b6000608082019050611efa6000830187611ca6565b8181036020830152611f0c8186611bee565b9050611f1b6040830185611bdf565b611f286060830184611df0565b95945050505050565b60006020820190508181036000830152611f4a81611cb5565b9050919050565b60006020820190508181036000830152611f6a81611cd8565b9050919050565b60006020820190508181036000830152611f8a81611cfb565b9050919050565b60006020820190508181036000830152611faa81611d1e565b9050919050565b60006020820190508181036000830152611fca81611d41565b9050919050565b60006020820190508181036000830152611fea81611d64565b9050919050565b6000602082019050818103600083015261200a81611d87565b9050919050565b6000602082019050818103600083015261202a81611daa565b9050919050565b6000602082019050818103600083015261204a81611dcd565b9050919050565b60006020820190506120666000830184611df0565b92915050565b600060a0820190506120816000830188611df0565b61208e6020830187611ca6565b81810360408301526120a08186611bee565b90506120af6060830185611bdf565b6120bc6080830184611df0565b9695505050505050565b60006040820190506120db6000830185611df0565b6120e86020830184611df0565b9392505050565b60006120f961210a565b905061210582826124b8565b919050565b6000604051905090565b600067ffffffffffffffff82111561212f5761212e612547565b5b602082029050602081019050919050565b6000819050602082019050919050565b600081519050919050565b6000602082019050919050565b600082825260208201905092915050565b600082825260208201905092915050565b6000612195826123c4565b91506121a0836123c4565b9250826121b0576121af612518565b5b828204905092915050565b6000808291508390505b6001851115612205578086048111156121e1576121e06124e9565b5b60018516156121f05780820291505b80810290506121fe85612587565b94506121c5565b94509492505050565b6000612219826123c4565b9150612224836123c4565b92506122517fffffffffffffffffffffffffffffffffffffffffffffffffffffffffffffffff8484612259565b905092915050565b6000826122695760019050612325565b816122775760009050612325565b816001811461228d5760028114612297576122c6565b6001915050612325565b60ff8411156122a9576122a86124e9565b5b8360020a9150848211156122c0576122bf6124e9565b5b50612325565b5060208310610133831016604e8410600b84101617156122fb5782820a9050838111156122f6576122f56124e9565b5b612325565b61230884848460016121bb565b9250905081840481111561231f5761231e6124e9565b5b81810290505b9392505050565b6000612337826123c4565b9150612342836123c4565b9250817fffffffffffffffffffffffffffffffffffffffffffffffffffffffffffffffff048311821515161561237b5761237a6124e9565b5b828202905092915050565b6000612391826123a4565b9050919050565b60008115159050919050565b600073ffffffffffffffffffffffffffffffffffffffff82169050919050565b6000819050919050565b60006123d9826123e0565b9050919050565b60006123eb826123a4565b9050919050565b60006123fd82612404565b9050919050565b600061240f826123a4565b9050919050565b600061242182612428565b9050919050565b6000612433826123a4565b9050919050565b60006124458261244c565b9050919050565b6000612457826123a4565b9050919050565b600061246982612470565b9050919050565b600061247b826123a4565b9050919050565b600061248d82612494565b9050919050565b600061249f826123a4565b9050919050565b60006124b1826123c4565b9050919050565b6124c182612576565b810181811067ffffffffffffffff821117156124e0576124df612547565b5b80604052505050565b7f4e487b7100000000000000000000000000000000000000000000000000000000600052601160045260246000fd5b7f4e487b7100000000000000000000000000000000000000000000000000000000600052601260045260246000fd5b7f4e487b7100000000000000000000000000000000000000000000000000000000600052604160045260246000fd5b6000601f19601f8301169050919050565b60008160011c9050919050565b7f6572726f72000000000000000000000000000000000000000000000000000000600082015250565b7f4c6971756964697479203d203000000000000000000000000000000000000000600082015250565b7f53686f727466616c6c203e203000000000000000000000000000000000000000600082015250565b7f43616e6e6f7420626f72726f772073706563696669656420616d6f756e74206f60008201527f662061737365742c20636865636b20636f6c6c65746572616c00000000000000602082015250565b7f536f6d65206572726f72206f6363757265640000000000000000000000000000600082015250565b7f52656465656d206661696c656400000000000000000000000000000000000000600082015250565b7f5265706179206661696c65640000000000000000000000000000000000000000600082015250565b7f496e73756666696369656e742044414900000000000000000000000000000000600082015250565b7f4f6e6c79206f776e65722063616e2063616c6c20746869730000000000000000600082015250565b61273481612398565b811461273f57600080fd5b50565b61274b816123c4565b811461275657600080fd5b5056fea26469706673582212203f7546e54679c5c3a24e25b4ab211c7d0979a2328eb91194e72112c27f8f5a2864736f6c63430008040033",
  "linkReferences": {},
  "deployedLinkReferences": {}
}