{
  "_format": "hh-sol-artifact-1",
  "contractName": "contractShort",
  "sourceName": "contracts/contractShort.sol",
  "abi": [
    {
      "inputs": [
        {
          "internalType": "address",
          "name": "_cEth",
          "type": "address"
        },
        {
          "internalType": "address",
          "name": "_cDAI",
          "type": "address"
        },
        {
          "internalType": "address",
          "name": "_DAI",
          "type": "address"
        },
        {
          "internalType": "uint256",
          "name": "_decimals",
          "type": "uint256"
        }
      ],
      "stateMutability": "nonpayable",
      "type": "constructor"
    },
    {
      "inputs": [],
      "name": "DAI",
      "outputs": [
        {
          "internalType": "contract IERC20",
          "name": "",
          "type": "address"
        }
      ],
      "stateMutability": "view",
      "type": "function"
    },
    {
      "inputs": [],
      "name": "Weth",
      "outputs": [
        {
          "internalType": "contract IERC20",
          "name": "",
          "type": "address"
        }
      ],
      "stateMutability": "view",
      "type": "function"
    },
    {
      "inputs": [],
      "name": "cDAI",
      "outputs": [
        {
          "internalType": "contract CErc20",
          "name": "",
          "type": "address"
        }
      ],
      "stateMutability": "view",
      "type": "function"
    },
    {
      "inputs": [],
      "name": "cEth",
      "outputs": [
        {
          "internalType": "contract CEth",
          "name": "",
          "type": "address"
        }
      ],
      "stateMutability": "view",
      "type": "function"
    },
    {
      "inputs": [],
      "name": "claimProfits",
      "outputs": [],
      "stateMutability": "nonpayable",
      "type": "function"
    },
    {
      "inputs": [],
      "name": "comptroller",
      "outputs": [
        {
          "internalType": "contract Comptroller",
          "name": "",
          "type": "address"
        }
      ],
      "stateMutability": "view",
      "type": "function"
    },
    {
      "inputs": [],
      "name": "decimals",
      "outputs": [
        {
          "internalType": "uint256",
          "name": "",
          "type": "uint256"
        }
      ],
      "stateMutability": "view",
      "type": "function"
    },
    {
      "inputs": [],
      "name": "getAccountLiquidity",
      "outputs": [
        {
          "internalType": "uint256",
          "name": "liquidity",
          "type": "uint256"
        },
        {
          "internalType": "uint256",
          "name": "shortfall",
          "type": "uint256"
        }
      ],
      "stateMutability": "view",
      "type": "function"
    },
    {
      "inputs": [],
      "name": "getBorrowBalance",
      "outputs": [
        {
          "internalType": "uint256",
          "name": "",
          "type": "uint256"
        }
      ],
      "stateMutability": "nonpayable",
      "type": "function"
    },
    {
      "inputs": [],
      "name": "getMaxBorrow",
      "outputs": [
        {
          "internalType": "uint256",
          "name": "",
          "type": "uint256"
        }
      ],
      "stateMutability": "view",
      "type": "function"
    },
    {
      "inputs": [],
      "name": "getSuppliedBalance",
      "outputs": [
        {
          "internalType": "uint256",
          "name": "",
          "type": "uint256"
        }
      ],
      "stateMutability": "nonpayable",
      "type": "function"
    },
    {
      "inputs": [
        {
          "internalType": "uint256",
          "name": "borrowAmount",
          "type": "uint256"
        },
        {
          "internalType": "uint256",
          "name": "uniswapTransactionDeadline",
          "type": "uint256"
        }
      ],
      "name": "goShort_ETH",
      "outputs": [],
      "stateMutability": "nonpayable",
      "type": "function"
    },
    {
      "inputs": [],
      "name": "pricefeed",
      "outputs": [
        {
          "internalType": "contract PriceFeed",
          "name": "",
          "type": "address"
        }
      ],
      "stateMutability": "view",
      "type": "function"
    },
    {
      "inputs": [
        {
          "internalType": "uint256",
          "name": "amountDAI",
          "type": "uint256"
        }
      ],
      "name": "supply",
      "outputs": [],
      "stateMutability": "payable",
      "type": "function"
    },
    {
      "inputs": [],
      "name": "uniswapRouter",
      "outputs": [
        {
          "internalType": "contract IUniswapV2Router",
          "name": "",
          "type": "address"
        }
      ],
      "stateMutability": "view",
      "type": "function"
    },
    {
      "stateMutability": "payable",
      "type": "receive"
    }
  ],
  "bytecode": "0x6080604052733d9819210a31b4961b30ef54be2aed79b9c9cd3b600460006101000a81548173ffffffffffffffffffffffffffffffffffffffff021916908373ffffffffffffffffffffffffffffffffffffffff16021790555073922018674c12a7f0d394ebeef9b58f186cde13c1600560006101000a81548173ffffffffffffffffffffffffffffffffffffffff021916908373ffffffffffffffffffffffffffffffffffffffff160217905550737a250d5630b4cf539739df2c5dacb4c659f2488d600660006101000a81548173ffffffffffffffffffffffffffffffffffffffff021916908373ffffffffffffffffffffffffffffffffffffffff16021790555073c02aaa39b223fe8d0a0e5c4f27ead9083c756cc2600760006101000a81548173ffffffffffffffffffffffffffffffffffffffff021916908373ffffffffffffffffffffffffffffffffffffffff1602179055503480156200016557600080fd5b50604051620027163803806200271683398181016040528101906200018b91906200028c565b836000806101000a81548173ffffffffffffffffffffffffffffffffffffffff021916908373ffffffffffffffffffffffffffffffffffffffff16021790555082600160006101000a81548173ffffffffffffffffffffffffffffffffffffffff021916908373ffffffffffffffffffffffffffffffffffffffff16021790555081600260006101000a81548173ffffffffffffffffffffffffffffffffffffffff021916908373ffffffffffffffffffffffffffffffffffffffff16021790555080600381905550505050506200036a565b6000815190506200026f8162000336565b92915050565b600081519050620002868162000350565b92915050565b60008060008060808587031215620002a357600080fd5b6000620002b3878288016200025e565b9450506020620002c6878288016200025e565b9350506040620002d9878288016200025e565b9250506060620002ec8782880162000275565b91505092959194509250565b600062000305826200030c565b9050919050565b600073ffffffffffffffffffffffffffffffffffffffff82169050919050565b6000819050919050565b6200034181620002f8565b81146200034d57600080fd5b50565b6200035b816200032c565b81146200036757600080fd5b50565b61239c806200037a6000396000f3fe6080604052600436106100ec5760003560e01c80636f6941b91161008a578063a690230511610059578063a6902305146102af578063af833d42146102d8578063ca20659114610303578063e0bab4c41461032e576100f3565b80636f6941b914610217578063735de9f7146102425780639df51b891461026d578063a44026a314610284576100f3565b806335403023116100c6578063354030231461017a5780634252b45214610196578063590f2113146101c15780635fe3b567146101ec576100f3565b80632fd4cda7146100f8578063313ce56714610124578063349849a31461014f576100f3565b366100f357005b600080fd5b34801561010457600080fd5b5061010d610359565b60405161011b929190611eda565b60405180910390f35b34801561013057600080fd5b50610139610462565b6040516101469190611e65565b60405180910390f35b34801561015b57600080fd5b50610164610468565b6040516101719190611ca8565b60405180910390f35b610194600480360381019061018f91906118cd565b61048e565b005b3480156101a257600080fd5b506101ab610893565b6040516101b89190611e65565b60405180910390f35b3480156101cd57600080fd5b506101d6610947565b6040516101e39190611cde565b60405180910390f35b3480156101f857600080fd5b5061020161096d565b60405161020e9190611c8d565b60405180910390f35b34801561022357600080fd5b5061022c610993565b6040516102399190611c57565b60405180910390f35b34801561024e57600080fd5b506102576109b9565b6040516102649190611cc3565b60405180910390f35b34801561027957600080fd5b506102826109df565b005b34801561029057600080fd5b506102996110d7565b6040516102a69190611c72565b60405180910390f35b3480156102bb57600080fd5b506102d660048036038101906102d1919061191f565b6110fb565b005b3480156102e457600080fd5b506102ed61144b565b6040516102fa9190611e65565b60405180910390f35b34801561030f57600080fd5b506103186116b5565b6040516103259190611e65565b60405180910390f35b34801561033a57600080fd5b50610343611768565b6040516103509190611ca8565b60405180910390f35b6000806000806000600460009054906101000a900473ffffffffffffffffffffffffffffffffffffffff1673ffffffffffffffffffffffffffffffffffffffff16635ec88c79306040518263ffffffff1660e01b81526004016103bc9190611bf1565b60606040518083038186803b1580156103d457600080fd5b505afa1580156103e8573d6000803e3d6000fd5b505050506040513d601f19601f8201168201806040525081019061040c919061195b565b92509250925060008314610455576040517f08c379a000000000000000000000000000000000000000000000000000000000815260040161044c90611d65565b60405180910390fd5b8181945094505050509091565b60035481565b600760009054906101000a900473ffffffffffffffffffffffffffffffffffffffff1681565b600260009054906101000a900473ffffffffffffffffffffffffffffffffffffffff1673ffffffffffffffffffffffffffffffffffffffff1663095ea7b3600160009054906101000a900473ffffffffffffffffffffffffffffffffffffffff16836040518363ffffffff1660e01b815260040161050d929190611c0c565b602060405180830381600087803b15801561052757600080fd5b505af115801561053b573d6000803e3d6000fd5b505050506040513d601f19601f8201168201806040525081019061055f91906118a4565b506000600160009054906101000a900473ffffffffffffffffffffffffffffffffffffffff1673ffffffffffffffffffffffffffffffffffffffff1663a0712d68836040518263ffffffff1660e01b81526004016105bd9190611e65565b602060405180830381600087803b1580156105d757600080fd5b505af11580156105eb573d6000803e3d6000fd5b505050506040513d601f19601f8201168201806040525081019061060f91906118f6565b1461064f576040517f08c379a000000000000000000000000000000000000000000000000000000000815260040161064690611dc5565b60405180910390fd5b6000600167ffffffffffffffff811115610692577f4e487b7100000000000000000000000000000000000000000000000000000000600052604160045260246000fd5b6040519080825280602002602001820160405280156106c05781602001602082028036833780820191505090505b509050600160009054906101000a900473ffffffffffffffffffffffffffffffffffffffff1681600081518110610720577f4e487b7100000000000000000000000000000000000000000000000000000000600052603260045260246000fd5b602002602001019073ffffffffffffffffffffffffffffffffffffffff16908173ffffffffffffffffffffffffffffffffffffffff16815250506000600460009054906101000a900473ffffffffffffffffffffffffffffffffffffffff1673ffffffffffffffffffffffffffffffffffffffff1663c2998238836040518263ffffffff1660e01b81526004016107b79190611c35565b600060405180830381600087803b1580156107d157600080fd5b505af11580156107e5573d6000803e3d6000fd5b505050506040513d6000823e3d601f19601f8201168201806040525081019061080e9190611863565b600081518110610847577f4e487b7100000000000000000000000000000000000000000000000000000000600052603260045260246000fd5b60200260200101511461088f576040517f08c379a000000000000000000000000000000000000000000000000000000000815260040161088690611de5565b60405180910390fd5b5050565b6000600160009054906101000a900473ffffffffffffffffffffffffffffffffffffffff1673ffffffffffffffffffffffffffffffffffffffff16633af9e669306040518263ffffffff1660e01b81526004016108f09190611bf1565b602060405180830381600087803b15801561090a57600080fd5b505af115801561091e573d6000803e3d6000fd5b505050506040513d601f19601f8201168201806040525081019061094291906118f6565b905090565b600560009054906101000a900473ffffffffffffffffffffffffffffffffffffffff1681565b600460009054906101000a900473ffffffffffffffffffffffffffffffffffffffff1681565b600160009054906101000a900473ffffffffffffffffffffffffffffffffffffffff1681565b600660009054906101000a900473ffffffffffffffffffffffffffffffffffffffff1681565b6000600260009054906101000a900473ffffffffffffffffffffffffffffffffffffffff1673ffffffffffffffffffffffffffffffffffffffff166370a08231306040518263ffffffff1660e01b8152600401610a3c9190611bf1565b60206040518083038186803b158015610a5457600080fd5b505afa158015610a68573d6000803e3d6000fd5b505050506040513d601f19601f82011682018060405250810190610a8c91906118f6565b9050600260009054906101000a900473ffffffffffffffffffffffffffffffffffffffff1673ffffffffffffffffffffffffffffffffffffffff1663095ea7b3600660009054906101000a900473ffffffffffffffffffffffffffffffffffffffff16836040518363ffffffff1660e01b8152600401610b0d929190611c0c565b602060405180830381600087803b158015610b2757600080fd5b505af1158015610b3b573d6000803e3d6000fd5b505050506040513d601f19601f82011682018060405250810190610b5f91906118a4565b506000600267ffffffffffffffff811115610ba3577f4e487b7100000000000000000000000000000000000000000000000000000000600052604160045260246000fd5b604051908082528060200260200182016040528015610bd15781602001602082028036833780820191505090505b509050600260009054906101000a900473ffffffffffffffffffffffffffffffffffffffff1681600081518110610c31577f4e487b7100000000000000000000000000000000000000000000000000000000600052603260045260246000fd5b602002602001019073ffffffffffffffffffffffffffffffffffffffff16908173ffffffffffffffffffffffffffffffffffffffff1681525050600760009054906101000a900473ffffffffffffffffffffffffffffffffffffffff1681600181518110610cc8577f4e487b7100000000000000000000000000000000000000000000000000000000600052603260045260246000fd5b602002602001019073ffffffffffffffffffffffffffffffffffffffff16908173ffffffffffffffffffffffffffffffffffffffff1681525050600660009054906101000a900473ffffffffffffffffffffffffffffffffffffffff1673ffffffffffffffffffffffffffffffffffffffff166318cbafe58360018430426040518663ffffffff1660e01b8152600401610d66959493929190611e80565b600060405180830381600087803b158015610d8057600080fd5b505af1158015610d94573d6000803e3d6000fd5b505050506040513d6000823e3d601f19601f82011682018060405250810190610dbd9190611863565b5060008060009054906101000a900473ffffffffffffffffffffffffffffffffffffffff1673ffffffffffffffffffffffffffffffffffffffff166317bfdfbc306040518263ffffffff1660e01b8152600401610e1a9190611bf1565b602060405180830381600087803b158015610e3457600080fd5b505af1158015610e48573d6000803e3d6000fd5b505050506040513d601f19601f82011682018060405250810190610e6c91906118f6565b9050804711610eb0576040517f08c379a0000000000000000000000000000000000000000000000000000000008152600401610ea790611d45565b60405180910390fd5b60008054906101000a900473ffffffffffffffffffffffffffffffffffffffff1673ffffffffffffffffffffffffffffffffffffffff16634e4d9fea826040518263ffffffff1660e01b81526004016000604051808303818588803b158015610f1857600080fd5b505af1158015610f2c573d6000803e3d6000fd5b50505050506000600160009054906101000a900473ffffffffffffffffffffffffffffffffffffffff1673ffffffffffffffffffffffffffffffffffffffff16633af9e669306040518263ffffffff1660e01b8152600401610f8e9190611bf1565b602060405180830381600087803b158015610fa857600080fd5b505af1158015610fbc573d6000803e3d6000fd5b505050506040513d601f19601f82011682018060405250810190610fe091906118f6565b90506000600160009054906101000a900473ffffffffffffffffffffffffffffffffffffffff1673ffffffffffffffffffffffffffffffffffffffff1663852a12e3836040518263ffffffff1660e01b815260040161103f9190611e65565b602060405180830381600087803b15801561105957600080fd5b505af115801561106d573d6000803e3d6000fd5b505050506040513d601f19601f8201168201806040525081019061109191906118f6565b146110d1576040517f08c379a00000000000000000000000000000000000000000000000000000000081526004016110c890611e25565b60405180910390fd5b50505050565b60008054906101000a900473ffffffffffffffffffffffffffffffffffffffff1681565b60008060009054906101000a900473ffffffffffffffffffffffffffffffffffffffff1673ffffffffffffffffffffffffffffffffffffffff1663c5ebeaec846040518263ffffffff1660e01b81526004016111579190611e65565b602060405180830381600087803b15801561117157600080fd5b505af1158015611185573d6000803e3d6000fd5b505050506040513d601f19601f820116820180604052508101906111a991906118f6565b146111e9576040517f08c379a00000000000000000000000000000000000000000000000000000000081526004016111e090611e45565b60405180910390fd5b6000600267ffffffffffffffff81111561122c577f4e487b7100000000000000000000000000000000000000000000000000000000600052604160045260246000fd5b60405190808252806020026020018201604052801561125a5781602001602082028036833780820191505090505b509050600760009054906101000a900473ffffffffffffffffffffffffffffffffffffffff16816000815181106112ba577f4e487b7100000000000000000000000000000000000000000000000000000000600052603260045260246000fd5b602002602001019073ffffffffffffffffffffffffffffffffffffffff16908173ffffffffffffffffffffffffffffffffffffffff1681525050600260009054906101000a900473ffffffffffffffffffffffffffffffffffffffff1681600181518110611351577f4e487b7100000000000000000000000000000000000000000000000000000000600052603260045260246000fd5b602002602001019073ffffffffffffffffffffffffffffffffffffffff16908173ffffffffffffffffffffffffffffffffffffffff1681525050600660009054906101000a900473ffffffffffffffffffffffffffffffffffffffff1673ffffffffffffffffffffffffffffffffffffffff16637ff36ab54760018430876040518663ffffffff1660e01b81526004016113ee9493929190611cf9565b6000604051808303818588803b15801561140757600080fd5b505af115801561141b573d6000803e3d6000fd5b50505050506040513d6000823e3d601f19601f820116820180604052508101906114459190611863565b50505050565b600080600080600460009054906101000a900473ffffffffffffffffffffffffffffffffffffffff1673ffffffffffffffffffffffffffffffffffffffff16635ec88c79306040518263ffffffff1660e01b81526004016114ac9190611bf1565b60606040518083038186803b1580156114c457600080fd5b505afa1580156114d8573d6000803e3d6000fd5b505050506040513d601f19601f820116820180604052508101906114fc919061195b565b92509250925060008314611545576040517f08c379a000000000000000000000000000000000000000000000000000000000815260040161153c90611e05565b60405180910390fd5b60008211611588576040517f08c379a000000000000000000000000000000000000000000000000000000000815260040161157f90611d85565b60405180910390fd5b600081146115cb576040517f08c379a00000000000000000000000000000000000000000000000000000000081526004016115c290611da5565b60405180910390fd5b6000600560009054906101000a900473ffffffffffffffffffffffffffffffffffffffff1673ffffffffffffffffffffffffffffffffffffffff1663fc57d4df60008054906101000a900473ffffffffffffffffffffffffffffffffffffffff166040518263ffffffff1660e01b81526004016116489190611bf1565b60206040518083038186803b15801561166057600080fd5b505afa158015611674573d6000803e3d6000fd5b505050506040513d601f19601f8201168201806040525081019061169891906118f6565b9050600081846116a89190611f9e565b9050809550505050505090565b60008060009054906101000a900473ffffffffffffffffffffffffffffffffffffffff1673ffffffffffffffffffffffffffffffffffffffff166317bfdfbc306040518263ffffffff1660e01b81526004016117119190611bf1565b602060405180830381600087803b15801561172b57600080fd5b505af115801561173f573d6000803e3d6000fd5b505050506040513d601f19601f8201168201806040525081019061176391906118f6565b905090565b600260009054906101000a900473ffffffffffffffffffffffffffffffffffffffff1681565b60006117a161179c84611f28565b611f03565b905080838252602082019050828560208602820111156117c057600080fd5b60005b858110156117f057816117d6888261184e565b8452602084019350602083019250506001810190506117c3565b5050509392505050565b600082601f83011261180b57600080fd5b815161181b84826020860161178e565b91505092915050565b60008151905061183381612338565b92915050565b6000813590506118488161234f565b92915050565b60008151905061185d8161234f565b92915050565b60006020828403121561187557600080fd5b600082015167ffffffffffffffff81111561188f57600080fd5b61189b848285016117fa565b91505092915050565b6000602082840312156118b657600080fd5b60006118c484828501611824565b91505092915050565b6000602082840312156118df57600080fd5b60006118ed84828501611839565b91505092915050565b60006020828403121561190857600080fd5b60006119168482850161184e565b91505092915050565b6000806040838503121561193257600080fd5b600061194085828601611839565b925050602061195185828601611839565b9150509250929050565b60008060006060848603121561197057600080fd5b600061197e8682870161184e565b935050602061198f8682870161184e565b92505060406119a08682870161184e565b9150509250925092565b60006119b683836119c2565b60208301905092915050565b6119cb81611fcf565b82525050565b6119da81611fcf565b82525050565b60006119eb82611f64565b6119f58185611f7c565b9350611a0083611f54565b8060005b83811015611a31578151611a1888826119aa565b9750611a2383611f6f565b925050600181019050611a04565b5085935050505092915050565b611a4781612017565b82525050565b611a568161203b565b82525050565b611a658161205f565b82525050565b611a7481612083565b82525050565b611a83816120a7565b82525050565b611a92816120cb565b82525050565b611aa1816120ef565b82525050565b6000611ab4601083611f8d565b9150611abf826121a1565b602082019050919050565b6000611ad7600583611f8d565b9150611ae2826121ca565b602082019050919050565b6000611afa600d83611f8d565b9150611b05826121f3565b602082019050919050565b6000611b1d600d83611f8d565b9150611b288261221c565b602082019050919050565b6000611b40600d83611f8d565b9150611b4b82612245565b602082019050919050565b6000611b63602083611f8d565b9150611b6e8261226e565b602082019050919050565b6000611b86601283611f8d565b9150611b9182612297565b602082019050919050565b6000611ba9600d83611f8d565b9150611bb4826122c0565b602082019050919050565b6000611bcc603783611f8d565b9150611bd7826122e9565b604082019050919050565b611beb8161200d565b82525050565b6000602082019050611c0660008301846119d1565b92915050565b6000604082019050611c2160008301856119d1565b611c2e6020830184611be2565b9392505050565b60006020820190508181036000830152611c4f81846119e0565b905092915050565b6000602082019050611c6c6000830184611a3e565b92915050565b6000602082019050611c876000830184611a4d565b92915050565b6000602082019050611ca26000830184611a5c565b92915050565b6000602082019050611cbd6000830184611a6b565b92915050565b6000602082019050611cd86000830184611a7a565b92915050565b6000602082019050611cf36000830184611a89565b92915050565b6000608082019050611d0e6000830187611a98565b8181036020830152611d2081866119e0565b9050611d2f60408301856119d1565b611d3c6060830184611be2565b95945050505050565b60006020820190508181036000830152611d5e81611aa7565b9050919050565b60006020820190508181036000830152611d7e81611aca565b9050919050565b60006020820190508181036000830152611d9e81611aed565b9050919050565b60006020820190508181036000830152611dbe81611b10565b9050919050565b60006020820190508181036000830152611dde81611b33565b9050919050565b60006020820190508181036000830152611dfe81611b56565b9050919050565b60006020820190508181036000830152611e1e81611b79565b9050919050565b60006020820190508181036000830152611e3e81611b9c565b9050919050565b60006020820190508181036000830152611e5e81611bbf565b9050919050565b6000602082019050611e7a6000830184611be2565b92915050565b600060a082019050611e956000830188611be2565b611ea26020830187611a98565b8181036040830152611eb481866119e0565b9050611ec360608301856119d1565b611ed06080830184611be2565b9695505050505050565b6000604082019050611eef6000830185611be2565b611efc6020830184611be2565b9392505050565b6000611f0d611f1e565b9050611f198282612101565b919050565b6000604051905090565b600067ffffffffffffffff821115611f4357611f42612161565b5b602082029050602081019050919050565b6000819050602082019050919050565b600081519050919050565b6000602082019050919050565b600082825260208201905092915050565b600082825260208201905092915050565b6000611fa98261200d565b9150611fb48361200d565b925082611fc457611fc3612132565b5b828204905092915050565b6000611fda82611fed565b9050919050565b60008115159050919050565b600073ffffffffffffffffffffffffffffffffffffffff82169050919050565b6000819050919050565b600061202282612029565b9050919050565b600061203482611fed565b9050919050565b60006120468261204d565b9050919050565b600061205882611fed565b9050919050565b600061206a82612071565b9050919050565b600061207c82611fed565b9050919050565b600061208e82612095565b9050919050565b60006120a082611fed565b9050919050565b60006120b2826120b9565b9050919050565b60006120c482611fed565b9050919050565b60006120d6826120dd565b9050919050565b60006120e882611fed565b9050919050565b60006120fa8261200d565b9050919050565b61210a82612190565b810181811067ffffffffffffffff8211171561212957612128612161565b5b80604052505050565b7f4e487b7100000000000000000000000000000000000000000000000000000000600052601260045260246000fd5b7f4e487b7100000000000000000000000000000000000000000000000000000000600052604160045260246000fd5b6000601f19601f8301169050919050565b7f496e73756666696369656e742045544800000000000000000000000000000000600082015250565b7f6572726f72000000000000000000000000000000000000000000000000000000600082015250565b7f4c6971756964697479203d203000000000000000000000000000000000000000600082015250565b7f53686f727466616c6c203e203000000000000000000000000000000000000000600082015250565b7f537570706c79206661696c656400000000000000000000000000000000000000600082015250565b7f436f6d7074726f6c6c65722e656e7465724d61726b657473206661696c65642e600082015250565b7f536f6d65206572726f72206f6363757265640000000000000000000000000000600082015250565b7f52656465656d206661696c656400000000000000000000000000000000000000600082015250565b7f43616e6e6f7420626f72726f772073706563696669656420616d6f756e74206f60008201527f66206574682c20636865636b20636f6c6c65746572616c000000000000000000602082015250565b61234181611fe1565b811461234c57600080fd5b50565b6123588161200d565b811461236357600080fd5b5056fea26469706673582212209e2c2adc626cd5efc96a14c40434aa38493744ad166c11bbfd22e0b2cfc59ed664736f6c63430008040033",
  "linkReferences": {},
  "deployedLinkReferences": {}
}