{
  "_format": "hh-sol-artifact-1",
  "contractName": "swapETHforDAI",
  "sourceName": "contracts/swapETHforDAI.sol",
  "abi": [
    {
      "inputs": [],
      "name": "Weth",
      "outputs": [
        {
          "internalType": "contract IERC20",
          "name": "",
          "type": "address"
        }
      ],
      "stateMutability": "view",
      "type": "function"
    },
    {
      "inputs": [
        {
          "internalType": "uint256",
          "name": "amountOutMin",
          "type": "uint256"
        },
        {
          "internalType": "address",
          "name": "token",
          "type": "address"
        },
        {
          "internalType": "address",
          "name": "reciever",
          "type": "address"
        }
      ],
      "name": "swapExactETHForTokens",
      "outputs": [],
      "stateMutability": "payable",
      "type": "function"
    },
    {
      "inputs": [],
      "name": "uniswapRouter",
      "outputs": [
        {
          "internalType": "contract IUniswapV2Router",
          "name": "",
          "type": "address"
        }
      ],
      "stateMutability": "view",
      "type": "function"
    }
  ],
  "bytecode": "0x6080604052737a250d5630b4cf539739df2c5dacb4c659f2488d6000806101000a81548173ffffffffffffffffffffffffffffffffffffffff021916908373ffffffffffffffffffffffffffffffffffffffff16021790555073c02aaa39b223fe8d0a0e5c4f27ead9083c756cc2600160006101000a81548173ffffffffffffffffffffffffffffffffffffffff021916908373ffffffffffffffffffffffffffffffffffffffff1602179055503480156100b957600080fd5b506107be806100c96000396000f3fe6080604052600436106100345760003560e01c8063349849a314610039578063735de9f714610064578063ee19d5361461008f575b600080fd5b34801561004557600080fd5b5061004e6100ab565b60405161005b9190610559565b60405180910390f35b34801561007057600080fd5b506100796100d1565b6040516100869190610574565b60405180910390f35b6100a960048036038101906100a49190610449565b6100f5565b005b600160009054906101000a900473ffffffffffffffffffffffffffffffffffffffff1681565b60008054906101000a900473ffffffffffffffffffffffffffffffffffffffff1681565b6000600267ffffffffffffffff811115610138577f4e487b7100000000000000000000000000000000000000000000000000000000600052604160045260246000fd5b6040519080825280602002602001820160405280156101665781602001602082028036833780820191505090505b509050600160009054906101000a900473ffffffffffffffffffffffffffffffffffffffff16816000815181106101c6577f4e487b7100000000000000000000000000000000000000000000000000000000600052603260045260246000fd5b602002602001019073ffffffffffffffffffffffffffffffffffffffff16908173ffffffffffffffffffffffffffffffffffffffff1681525050828160018151811061023b577f4e487b7100000000000000000000000000000000000000000000000000000000600052603260045260246000fd5b602002602001019073ffffffffffffffffffffffffffffffffffffffff16908173ffffffffffffffffffffffffffffffffffffffff168152505060008054906101000a900473ffffffffffffffffffffffffffffffffffffffff1673ffffffffffffffffffffffffffffffffffffffff16637ff36ab534868486426040518663ffffffff1660e01b81526004016102d5949392919061058f565b6000604051808303818588803b1580156102ee57600080fd5b505af1158015610302573d6000803e3d6000fd5b50505050506040513d6000823e3d601f19601f8201168201806040525081019061032c9190610408565b5050505050565b600061034661034184610600565b6105db565b9050808382526020820190508285602086028201111561036557600080fd5b60005b85811015610395578161037b88826103f3565b845260208401935060208301925050600181019050610368565b5050509392505050565b6000813590506103ae8161075a565b92915050565b600082601f8301126103c557600080fd5b81516103d5848260208601610333565b91505092915050565b6000813590506103ed81610771565b92915050565b60008151905061040281610771565b92915050565b60006020828403121561041a57600080fd5b600082015167ffffffffffffffff81111561043457600080fd5b610440848285016103b4565b91505092915050565b60008060006060848603121561045e57600080fd5b600061046c868287016103de565b935050602061047d8682870161039f565b925050604061048e8682870161039f565b9150509250925092565b60006104a483836104b0565b60208301905092915050565b6104b981610665565b82525050565b6104c881610665565b82525050565b60006104d98261063c565b6104e38185610654565b93506104ee8361062c565b8060005b8381101561051f5781516105068882610498565b975061051183610647565b9250506001810190506104f2565b5085935050505092915050565b610535816106a1565b82525050565b610544816106c5565b82525050565b61055381610697565b82525050565b600060208201905061056e600083018461052c565b92915050565b6000602082019050610589600083018461053b565b92915050565b60006080820190506105a4600083018761054a565b81810360208301526105b681866104ce565b90506105c560408301856104bf565b6105d2606083018461054a565b95945050505050565b60006105e56105f6565b90506105f182826106e9565b919050565b6000604051905090565b600067ffffffffffffffff82111561061b5761061a61071a565b5b602082029050602081019050919050565b6000819050602082019050919050565b600081519050919050565b6000602082019050919050565b600082825260208201905092915050565b600061067082610677565b9050919050565b600073ffffffffffffffffffffffffffffffffffffffff82169050919050565b6000819050919050565b60006106ac826106b3565b9050919050565b60006106be82610677565b9050919050565b60006106d0826106d7565b9050919050565b60006106e282610677565b9050919050565b6106f282610749565b810181811067ffffffffffffffff821117156107115761071061071a565b5b80604052505050565b7f4e487b7100000000000000000000000000000000000000000000000000000000600052604160045260246000fd5b6000601f19601f8301169050919050565b61076381610665565b811461076e57600080fd5b50565b61077a81610697565b811461078557600080fd5b5056fea2646970667358221220e761ca2e86961e1573df52148004288a6cea8fa2842b1671c07787004b4b47b464736f6c63430008040033",
  "linkReferences": {},
  "deployedLinkReferences": {}
}