{
  "_format": "hh-sol-artifact-1",
  "contractName": "contractShort",
  "sourceName": "contracts/contractShort.sol",
  "abi": [
    {
      "inputs": [
        {
          "internalType": "address",
          "name": "_cEth",
          "type": "address"
        },
        {
          "internalType": "address",
          "name": "_cDAI",
          "type": "address"
        },
        {
          "internalType": "address",
          "name": "_DAI",
          "type": "address"
        },
        {
          "internalType": "uint256",
          "name": "_decimals",
          "type": "uint256"
        }
      ],
      "stateMutability": "nonpayable",
      "type": "constructor"
    },
    {
      "inputs": [],
      "name": "DAI",
      "outputs": [
        {
          "internalType": "contract IERC20",
          "name": "",
          "type": "address"
        }
      ],
      "stateMutability": "view",
      "type": "function"
    },
    {
      "inputs": [],
      "name": "Weth",
      "outputs": [
        {
          "internalType": "contract IERC20",
          "name": "",
          "type": "address"
        }
      ],
      "stateMutability": "view",
      "type": "function"
    },
    {
      "inputs": [],
      "name": "cDAI",
      "outputs": [
        {
          "internalType": "contract CErc20",
          "name": "",
          "type": "address"
        }
      ],
      "stateMutability": "view",
      "type": "function"
    },
    {
      "inputs": [],
      "name": "cEth",
      "outputs": [
        {
          "internalType": "contract CEth",
          "name": "",
          "type": "address"
        }
      ],
      "stateMutability": "view",
      "type": "function"
    },
    {
      "inputs": [
        {
          "internalType": "uint256",
          "name": "uniswapTransactionDeadline",
          "type": "uint256"
        }
      ],
      "name": "claimProfits",
      "outputs": [],
      "stateMutability": "nonpayable",
      "type": "function"
    },
    {
      "inputs": [],
      "name": "comptroller",
      "outputs": [
        {
          "internalType": "contract Comptroller",
          "name": "",
          "type": "address"
        }
      ],
      "stateMutability": "view",
      "type": "function"
    },
    {
      "inputs": [],
      "name": "decimals",
      "outputs": [
        {
          "internalType": "uint256",
          "name": "",
          "type": "uint256"
        }
      ],
      "stateMutability": "view",
      "type": "function"
    },
    {
      "inputs": [],
      "name": "getAccountLiquidity",
      "outputs": [
        {
          "internalType": "uint256",
          "name": "liquidity",
          "type": "uint256"
        },
        {
          "internalType": "uint256",
          "name": "shortfall",
          "type": "uint256"
        }
      ],
      "stateMutability": "view",
      "type": "function"
    },
    {
      "inputs": [],
      "name": "getBorrowBalance",
      "outputs": [
        {
          "internalType": "uint256",
          "name": "",
          "type": "uint256"
        }
      ],
      "stateMutability": "nonpayable",
      "type": "function"
    },
    {
      "inputs": [],
      "name": "getMaxBorrow",
      "outputs": [
        {
          "internalType": "uint256",
          "name": "",
          "type": "uint256"
        }
      ],
      "stateMutability": "view",
      "type": "function"
    },
    {
      "inputs": [],
      "name": "getSuppliedBalance",
      "outputs": [
        {
          "internalType": "uint256",
          "name": "",
          "type": "uint256"
        }
      ],
      "stateMutability": "nonpayable",
      "type": "function"
    },
    {
      "inputs": [
        {
          "internalType": "uint256",
          "name": "borrowAmount",
          "type": "uint256"
        },
        {
          "internalType": "uint256",
          "name": "uniswapTransactionDeadline",
          "type": "uint256"
        }
      ],
      "name": "goShort_ETH",
      "outputs": [],
      "stateMutability": "nonpayable",
      "type": "function"
    },
    {
      "inputs": [],
      "name": "owner",
      "outputs": [
        {
          "internalType": "address",
          "name": "",
          "type": "address"
        }
      ],
      "stateMutability": "view",
      "type": "function"
    },
    {
      "inputs": [],
      "name": "pricefeed",
      "outputs": [
        {
          "internalType": "contract PriceFeed",
          "name": "",
          "type": "address"
        }
      ],
      "stateMutability": "view",
      "type": "function"
    },
    {
      "inputs": [
        {
          "internalType": "uint256",
          "name": "amountDAI",
          "type": "uint256"
        }
      ],
      "name": "supply",
      "outputs": [],
      "stateMutability": "payable",
      "type": "function"
    },
    {
      "inputs": [],
      "name": "uniswapRouter",
      "outputs": [
        {
          "internalType": "contract IUniswapV2Router",
          "name": "",
          "type": "address"
        }
      ],
      "stateMutability": "view",
      "type": "function"
    },
    {
      "inputs": [],
      "name": "withdraw_ETH",
      "outputs": [],
      "stateMutability": "nonpayable",
      "type": "function"
    },
    {
      "stateMutability": "payable",
      "type": "receive"
    }
  ],
  "bytecode": "0x6080604052733d9819210a31b4961b30ef54be2aed79b9c9cd3b600560006101000a81548173ffffffffffffffffffffffffffffffffffffffff021916908373ffffffffffffffffffffffffffffffffffffffff16021790555073922018674c12a7f0d394ebeef9b58f186cde13c1600660006101000a81548173ffffffffffffffffffffffffffffffffffffffff021916908373ffffffffffffffffffffffffffffffffffffffff160217905550737a250d5630b4cf539739df2c5dacb4c659f2488d600760006101000a81548173ffffffffffffffffffffffffffffffffffffffff021916908373ffffffffffffffffffffffffffffffffffffffff16021790555073c02aaa39b223fe8d0a0e5c4f27ead9083c756cc2600860006101000a81548173ffffffffffffffffffffffffffffffffffffffff021916908373ffffffffffffffffffffffffffffffffffffffff1602179055503480156200016557600080fd5b5060405162002f3838038062002f3883398181016040528101906200018b9190620005bd565b836000806101000a81548173ffffffffffffffffffffffffffffffffffffffff021916908373ffffffffffffffffffffffffffffffffffffffff16021790555082600160006101000a81548173ffffffffffffffffffffffffffffffffffffffff021916908373ffffffffffffffffffffffffffffffffffffffff16021790555081600260006101000a81548173ffffffffffffffffffffffffffffffffffffffff021916908373ffffffffffffffffffffffffffffffffffffffff160217905550806003819055506000600167ffffffffffffffff81111562000298577f4e487b7100000000000000000000000000000000000000000000000000000000600052604160045260246000fd5b604051908082528060200260200182016040528015620002c75781602001602082028036833780820191505090505b509050600160009054906101000a900473ffffffffffffffffffffffffffffffffffffffff168160008151811062000328577f4e487b7100000000000000000000000000000000000000000000000000000000600052603260045260246000fd5b602002602001019073ffffffffffffffffffffffffffffffffffffffff16908173ffffffffffffffffffffffffffffffffffffffff16815250506000600560009054906101000a900473ffffffffffffffffffffffffffffffffffffffff1673ffffffffffffffffffffffffffffffffffffffff1663c2998238836040518263ffffffff1660e01b8152600401620003c191906200072a565b600060405180830381600087803b158015620003dc57600080fd5b505af1158015620003f1573d6000803e3d6000fd5b505050506040513d6000823e3d601f19601f820116820180604052508101906200041c919062000629565b60008151811062000456577f4e487b7100000000000000000000000000000000000000000000000000000000600052603260045260246000fd5b602002602001015114620004a1576040517f08c379a000000000000000000000000000000000000000000000000000000000815260040162000498906200074e565b60405180910390fd5b33600460006101000a81548173ffffffffffffffffffffffffffffffffffffffff021916908373ffffffffffffffffffffffffffffffffffffffff160217905550505050505062000923565b600062000504620004fe8462000799565b62000770565b905080838252602082019050828560208602820111156200052457600080fd5b60005b858110156200055857816200053d8882620005a6565b84526020840193506020830192505060018101905062000527565b5050509392505050565b6000815190506200057381620008ef565b92915050565b600082601f8301126200058b57600080fd5b81516200059d848260208601620004ed565b91505092915050565b600081519050620005b78162000909565b92915050565b60008060008060808587031215620005d457600080fd5b6000620005e48782880162000562565b9450506020620005f78782880162000562565b93505060406200060a8782880162000562565b92505060606200061d87828801620005a6565b91505092959194509250565b6000602082840312156200063c57600080fd5b600082015167ffffffffffffffff8111156200065757600080fd5b620006658482850162000579565b91505092915050565b60006200067c838362000688565b60208301905092915050565b620006938162000812565b82525050565b6000620006a682620007d8565b620006b28185620007f0565b9350620006bf83620007c8565b8060005b83811015620006f6578151620006da88826200066e565b9750620006e783620007e3565b925050600181019050620006c3565b5085935050505092915050565b60006200071260208362000801565b91506200071f82620008c6565b602082019050919050565b6000602082019050818103600083015262000746818462000699565b905092915050565b60006020820190508181036000830152620007698162000703565b9050919050565b60006200077c6200078f565b90506200078a828262000850565b919050565b6000604051905090565b600067ffffffffffffffff821115620007b757620007b662000886565b5b602082029050602081019050919050565b6000819050602082019050919050565b600081519050919050565b6000602082019050919050565b600082825260208201905092915050565b600082825260208201905092915050565b60006200081f8262000826565b9050919050565b600073ffffffffffffffffffffffffffffffffffffffff82169050919050565b6000819050919050565b6200085b82620008b5565b810181811067ffffffffffffffff821117156200087d576200087c62000886565b5b80604052505050565b7f4e487b7100000000000000000000000000000000000000000000000000000000600052604160045260246000fd5b6000601f19601f8301169050919050565b7f436f6d7074726f6c6c65722e656e7465724d61726b657473206661696c65642e600082015250565b620008fa8162000812565b81146200090657600080fd5b50565b620009148162000846565b81146200092057600080fd5b50565b61260580620009336000396000f3fe6080604052600436106101025760003560e01c8063735de9f711610095578063a690230511610064578063a6902305146102f0578063af833d4214610319578063ca20659114610344578063da839c971461036f578063e0bab4c41461039857610109565b8063735de9f7146102585780638da5cb5b14610283578063a2b61e55146102ae578063a44026a3146102c557610109565b80634252b452116100d15780634252b452146101ac578063590f2113146101d75780635fe3b567146102025780636f6941b91461022d57610109565b80632fd4cda71461010e578063313ce5671461013a578063349849a314610165578063354030231461019057610109565b3661010957005b600080fd5b34801561011a57600080fd5b506101236103c3565b604051610131929190611f3c565b60405180910390f35b34801561014657600080fd5b5061014f6104cc565b60405161015c9190611ec7565b60405180910390f35b34801561017157600080fd5b5061017a6104d2565b6040516101879190611d0a565b60405180910390f35b6101aa60048036038101906101a59190611951565b6104f8565b005b3480156101b857600080fd5b506101c16106bc565b6040516101ce9190611ec7565b60405180910390f35b3480156101e357600080fd5b506101ec610770565b6040516101f99190611d40565b60405180910390f35b34801561020e57600080fd5b50610217610796565b6040516102249190611cef565b60405180910390f35b34801561023957600080fd5b506102426107bc565b60405161024f9190611cb9565b60405180910390f35b34801561026457600080fd5b5061026d6107e2565b60405161027a9190611d25565b60405180910390f35b34801561028f57600080fd5b50610298610808565b6040516102a59190611c75565b60405180910390f35b3480156102ba57600080fd5b506102c361082e565b005b3480156102d157600080fd5b506102da610929565b6040516102e79190611cd4565b60405180910390f35b3480156102fc57600080fd5b50610317600480360381019061031291906119a3565b61094d565b005b34801561032557600080fd5b5061032e610d46565b60405161033b9190611ec7565b60405180910390f35b34801561035057600080fd5b50610359610fb0565b6040516103669190611ec7565b60405180910390f35b34801561037b57600080fd5b5061039660048036038101906103919190611951565b611063565b005b3480156103a457600080fd5b506103ad6117ec565b6040516103ba9190611d0a565b60405180910390f35b6000806000806000600560009054906101000a900473ffffffffffffffffffffffffffffffffffffffff1673ffffffffffffffffffffffffffffffffffffffff16635ec88c79306040518263ffffffff1660e01b81526004016104269190611c75565b60606040518083038186803b15801561043e57600080fd5b505afa158015610452573d6000803e3d6000fd5b505050506040513d601f19601f8201168201806040525081019061047691906119df565b925092509250600083146104bf576040517f08c379a00000000000000000000000000000000000000000000000000000000081526004016104b690611dc7565b60405180910390fd5b8181945094505050509091565b60035481565b600860009054906101000a900473ffffffffffffffffffffffffffffffffffffffff1681565b600260009054906101000a900473ffffffffffffffffffffffffffffffffffffffff1673ffffffffffffffffffffffffffffffffffffffff1663095ea7b3600160009054906101000a900473ffffffffffffffffffffffffffffffffffffffff16836040518363ffffffff1660e01b8152600401610577929190611c90565b602060405180830381600087803b15801561059157600080fd5b505af11580156105a5573d6000803e3d6000fd5b505050506040513d601f19601f820116820180604052508101906105c99190611928565b506000600160009054906101000a900473ffffffffffffffffffffffffffffffffffffffff1673ffffffffffffffffffffffffffffffffffffffff1663a0712d68836040518263ffffffff1660e01b81526004016106279190611ec7565b602060405180830381600087803b15801561064157600080fd5b505af1158015610655573d6000803e3d6000fd5b505050506040513d601f19601f82011682018060405250810190610679919061197a565b146106b9576040517f08c379a00000000000000000000000000000000000000000000000000000000081526004016106b090611e27565b60405180910390fd5b50565b6000600160009054906101000a900473ffffffffffffffffffffffffffffffffffffffff1673ffffffffffffffffffffffffffffffffffffffff16633af9e669306040518263ffffffff1660e01b81526004016107199190611c75565b602060405180830381600087803b15801561073357600080fd5b505af1158015610747573d6000803e3d6000fd5b505050506040513d601f19601f8201168201806040525081019061076b919061197a565b905090565b600660009054906101000a900473ffffffffffffffffffffffffffffffffffffffff1681565b600560009054906101000a900473ffffffffffffffffffffffffffffffffffffffff1681565b600160009054906101000a900473ffffffffffffffffffffffffffffffffffffffff1681565b600760009054906101000a900473ffffffffffffffffffffffffffffffffffffffff1681565b600460009054906101000a900473ffffffffffffffffffffffffffffffffffffffff1681565b600460009054906101000a900473ffffffffffffffffffffffffffffffffffffffff1673ffffffffffffffffffffffffffffffffffffffff163373ffffffffffffffffffffffffffffffffffffffff16146108be576040517f08c379a00000000000000000000000000000000000000000000000000000000081526004016108b590611ea7565b60405180910390fd5b600460009054906101000a900473ffffffffffffffffffffffffffffffffffffffff1673ffffffffffffffffffffffffffffffffffffffff166108fc479081150290604051600060405180830381858888f19350505050158015610926573d6000803e3d6000fd5b50565b60008054906101000a900473ffffffffffffffffffffffffffffffffffffffff1681565b600460009054906101000a900473ffffffffffffffffffffffffffffffffffffffff1673ffffffffffffffffffffffffffffffffffffffff163373ffffffffffffffffffffffffffffffffffffffff16146109dd576040517f08c379a00000000000000000000000000000000000000000000000000000000081526004016109d490611ea7565b60405180910390fd5b60008060009054906101000a900473ffffffffffffffffffffffffffffffffffffffff1673ffffffffffffffffffffffffffffffffffffffff1663c5ebeaec600354600a610a2b9190612084565b85610a3691906121a2565b6040518263ffffffff1660e01b8152600401610a529190611ec7565b602060405180830381600087803b158015610a6c57600080fd5b505af1158015610a80573d6000803e3d6000fd5b505050506040513d601f19601f82011682018060405250810190610aa4919061197a565b14610ae4576040517f08c379a0000000000000000000000000000000000000000000000000000000008152600401610adb90611e87565b60405180910390fd5b6000600267ffffffffffffffff811115610b27577f4e487b7100000000000000000000000000000000000000000000000000000000600052604160045260246000fd5b604051908082528060200260200182016040528015610b555781602001602082028036833780820191505090505b509050600860009054906101000a900473ffffffffffffffffffffffffffffffffffffffff1681600081518110610bb5577f4e487b7100000000000000000000000000000000000000000000000000000000600052603260045260246000fd5b602002602001019073ffffffffffffffffffffffffffffffffffffffff16908173ffffffffffffffffffffffffffffffffffffffff1681525050600260009054906101000a900473ffffffffffffffffffffffffffffffffffffffff1681600181518110610c4c577f4e487b7100000000000000000000000000000000000000000000000000000000600052603260045260246000fd5b602002602001019073ffffffffffffffffffffffffffffffffffffffff16908173ffffffffffffffffffffffffffffffffffffffff1681525050600760009054906101000a900473ffffffffffffffffffffffffffffffffffffffff1673ffffffffffffffffffffffffffffffffffffffff16637ff36ab54760018430876040518663ffffffff1660e01b8152600401610ce99493929190611d5b565b6000604051808303818588803b158015610d0257600080fd5b505af1158015610d16573d6000803e3d6000fd5b50505050506040513d6000823e3d601f19601f82011682018060405250810190610d4091906118e7565b50505050565b600080600080600560009054906101000a900473ffffffffffffffffffffffffffffffffffffffff1673ffffffffffffffffffffffffffffffffffffffff16635ec88c79306040518263ffffffff1660e01b8152600401610da79190611c75565b60606040518083038186803b158015610dbf57600080fd5b505afa158015610dd3573d6000803e3d6000fd5b505050506040513d601f19601f82011682018060405250810190610df791906119df565b92509250925060008314610e40576040517f08c379a0000000000000000000000000000000000000000000000000000000008152600401610e3790611e47565b60405180910390fd5b60008211610e83576040517f08c379a0000000000000000000000000000000000000000000000000000000008152600401610e7a90611de7565b60405180910390fd5b60008114610ec6576040517f08c379a0000000000000000000000000000000000000000000000000000000008152600401610ebd90611e07565b60405180910390fd5b6000600660009054906101000a900473ffffffffffffffffffffffffffffffffffffffff1673ffffffffffffffffffffffffffffffffffffffff1663fc57d4df60008054906101000a900473ffffffffffffffffffffffffffffffffffffffff166040518263ffffffff1660e01b8152600401610f439190611c75565b60206040518083038186803b158015610f5b57600080fd5b505afa158015610f6f573d6000803e3d6000fd5b505050506040513d601f19601f82011682018060405250810190610f93919061197a565b905060008184610fa39190612000565b9050809550505050505090565b60008060009054906101000a900473ffffffffffffffffffffffffffffffffffffffff1673ffffffffffffffffffffffffffffffffffffffff166317bfdfbc306040518263ffffffff1660e01b815260040161100c9190611c75565b602060405180830381600087803b15801561102657600080fd5b505af115801561103a573d6000803e3d6000fd5b505050506040513d601f19601f8201168201806040525081019061105e919061197a565b905090565b600460009054906101000a900473ffffffffffffffffffffffffffffffffffffffff1673ffffffffffffffffffffffffffffffffffffffff163373ffffffffffffffffffffffffffffffffffffffff16146110f3576040517f08c379a00000000000000000000000000000000000000000000000000000000081526004016110ea90611ea7565b60405180910390fd5b6000600260009054906101000a900473ffffffffffffffffffffffffffffffffffffffff1673ffffffffffffffffffffffffffffffffffffffff166370a08231306040518263ffffffff1660e01b81526004016111509190611c75565b60206040518083038186803b15801561116857600080fd5b505afa15801561117c573d6000803e3d6000fd5b505050506040513d601f19601f820116820180604052508101906111a0919061197a565b9050600260009054906101000a900473ffffffffffffffffffffffffffffffffffffffff1673ffffffffffffffffffffffffffffffffffffffff1663095ea7b3600760009054906101000a900473ffffffffffffffffffffffffffffffffffffffff16836040518363ffffffff1660e01b8152600401611221929190611c90565b602060405180830381600087803b15801561123b57600080fd5b505af115801561124f573d6000803e3d6000fd5b505050506040513d601f19601f820116820180604052508101906112739190611928565b506000600267ffffffffffffffff8111156112b7577f4e487b7100000000000000000000000000000000000000000000000000000000600052604160045260246000fd5b6040519080825280602002602001820160405280156112e55781602001602082028036833780820191505090505b509050600260009054906101000a900473ffffffffffffffffffffffffffffffffffffffff1681600081518110611345577f4e487b7100000000000000000000000000000000000000000000000000000000600052603260045260246000fd5b602002602001019073ffffffffffffffffffffffffffffffffffffffff16908173ffffffffffffffffffffffffffffffffffffffff1681525050600860009054906101000a900473ffffffffffffffffffffffffffffffffffffffff16816001815181106113dc577f4e487b7100000000000000000000000000000000000000000000000000000000600052603260045260246000fd5b602002602001019073ffffffffffffffffffffffffffffffffffffffff16908173ffffffffffffffffffffffffffffffffffffffff1681525050600760009054906101000a900473ffffffffffffffffffffffffffffffffffffffff1673ffffffffffffffffffffffffffffffffffffffff166318cbafe58360018430886040518663ffffffff1660e01b815260040161147a959493929190611ee2565b600060405180830381600087803b15801561149457600080fd5b505af11580156114a8573d6000803e3d6000fd5b505050506040513d6000823e3d601f19601f820116820180604052508101906114d191906118e7565b5060008060009054906101000a900473ffffffffffffffffffffffffffffffffffffffff1673ffffffffffffffffffffffffffffffffffffffff166317bfdfbc306040518263ffffffff1660e01b815260040161152e9190611c75565b602060405180830381600087803b15801561154857600080fd5b505af115801561155c573d6000803e3d6000fd5b505050506040513d601f19601f82011682018060405250810190611580919061197a565b90508047116115c4576040517f08c379a00000000000000000000000000000000000000000000000000000000081526004016115bb90611da7565b60405180910390fd5b60008054906101000a900473ffffffffffffffffffffffffffffffffffffffff1673ffffffffffffffffffffffffffffffffffffffff16634e4d9fea826040518263ffffffff1660e01b81526004016000604051808303818588803b15801561162c57600080fd5b505af1158015611640573d6000803e3d6000fd5b50505050506000600160009054906101000a900473ffffffffffffffffffffffffffffffffffffffff1673ffffffffffffffffffffffffffffffffffffffff16633af9e669306040518263ffffffff1660e01b81526004016116a29190611c75565b602060405180830381600087803b1580156116bc57600080fd5b505af11580156116d0573d6000803e3d6000fd5b505050506040513d601f19601f820116820180604052508101906116f4919061197a565b90506000600160009054906101000a900473ffffffffffffffffffffffffffffffffffffffff1673ffffffffffffffffffffffffffffffffffffffff1663852a12e3836040518263ffffffff1660e01b81526004016117539190611ec7565b602060405180830381600087803b15801561176d57600080fd5b505af1158015611781573d6000803e3d6000fd5b505050506040513d601f19601f820116820180604052508101906117a5919061197a565b146117e5576040517f08c379a00000000000000000000000000000000000000000000000000000000081526004016117dc90611e67565b60405180910390fd5b5050505050565b600260009054906101000a900473ffffffffffffffffffffffffffffffffffffffff1681565b600061182561182084611f8a565b611f65565b9050808382526020820190508285602086028201111561184457600080fd5b60005b85811015611874578161185a88826118d2565b845260208401935060208301925050600181019050611847565b5050509392505050565b600082601f83011261188f57600080fd5b815161189f848260208601611812565b91505092915050565b6000815190506118b7816125a1565b92915050565b6000813590506118cc816125b8565b92915050565b6000815190506118e1816125b8565b92915050565b6000602082840312156118f957600080fd5b600082015167ffffffffffffffff81111561191357600080fd5b61191f8482850161187e565b91505092915050565b60006020828403121561193a57600080fd5b6000611948848285016118a8565b91505092915050565b60006020828403121561196357600080fd5b6000611971848285016118bd565b91505092915050565b60006020828403121561198c57600080fd5b600061199a848285016118d2565b91505092915050565b600080604083850312156119b657600080fd5b60006119c4858286016118bd565b92505060206119d5858286016118bd565b9150509250929050565b6000806000606084860312156119f457600080fd5b6000611a02868287016118d2565b9350506020611a13868287016118d2565b9250506040611a24868287016118d2565b9150509250925092565b6000611a3a8383611a46565b60208301905092915050565b611a4f816121fc565b82525050565b611a5e816121fc565b82525050565b6000611a6f82611fc6565b611a798185611fde565b9350611a8483611fb6565b8060005b83811015611ab5578151611a9c8882611a2e565b9750611aa783611fd1565b925050600181019050611a88565b5085935050505092915050565b611acb81612244565b82525050565b611ada81612268565b82525050565b611ae98161228c565b82525050565b611af8816122b0565b82525050565b611b07816122d4565b82525050565b611b16816122f8565b82525050565b611b258161231c565b82525050565b6000611b38601083611fef565b9150611b438261240a565b602082019050919050565b6000611b5b600583611fef565b9150611b6682612433565b602082019050919050565b6000611b7e600d83611fef565b9150611b898261245c565b602082019050919050565b6000611ba1600d83611fef565b9150611bac82612485565b602082019050919050565b6000611bc4600d83611fef565b9150611bcf826124ae565b602082019050919050565b6000611be7601283611fef565b9150611bf2826124d7565b602082019050919050565b6000611c0a600d83611fef565b9150611c1582612500565b602082019050919050565b6000611c2d603783611fef565b9150611c3882612529565b604082019050919050565b6000611c50601883611fef565b9150611c5b82612578565b602082019050919050565b611c6f8161223a565b82525050565b6000602082019050611c8a6000830184611a55565b92915050565b6000604082019050611ca56000830185611a55565b611cb26020830184611c66565b9392505050565b6000602082019050611cce6000830184611ac2565b92915050565b6000602082019050611ce96000830184611ad1565b92915050565b6000602082019050611d046000830184611ae0565b92915050565b6000602082019050611d1f6000830184611aef565b92915050565b6000602082019050611d3a6000830184611afe565b92915050565b6000602082019050611d556000830184611b0d565b92915050565b6000608082019050611d706000830187611b1c565b8181036020830152611d828186611a64565b9050611d916040830185611a55565b611d9e6060830184611c66565b95945050505050565b60006020820190508181036000830152611dc081611b2b565b9050919050565b60006020820190508181036000830152611de081611b4e565b9050919050565b60006020820190508181036000830152611e0081611b71565b9050919050565b60006020820190508181036000830152611e2081611b94565b9050919050565b60006020820190508181036000830152611e4081611bb7565b9050919050565b60006020820190508181036000830152611e6081611bda565b9050919050565b60006020820190508181036000830152611e8081611bfd565b9050919050565b60006020820190508181036000830152611ea081611c20565b9050919050565b60006020820190508181036000830152611ec081611c43565b9050919050565b6000602082019050611edc6000830184611c66565b92915050565b600060a082019050611ef76000830188611c66565b611f046020830187611b1c565b8181036040830152611f168186611a64565b9050611f256060830185611a55565b611f326080830184611c66565b9695505050505050565b6000604082019050611f516000830185611c66565b611f5e6020830184611c66565b9392505050565b6000611f6f611f80565b9050611f7b828261232e565b919050565b6000604051905090565b600067ffffffffffffffff821115611fa557611fa46123bd565b5b602082029050602081019050919050565b6000819050602082019050919050565b600081519050919050565b6000602082019050919050565b600082825260208201905092915050565b600082825260208201905092915050565b600061200b8261223a565b91506120168361223a565b9250826120265761202561238e565b5b828204905092915050565b6000808291508390505b600185111561207b578086048111156120575761205661235f565b5b60018516156120665780820291505b8081029050612074856123fd565b945061203b565b94509492505050565b600061208f8261223a565b915061209a8361223a565b92506120c77fffffffffffffffffffffffffffffffffffffffffffffffffffffffffffffffff84846120cf565b905092915050565b6000826120df576001905061219b565b816120ed576000905061219b565b8160018114612103576002811461210d5761213c565b600191505061219b565b60ff84111561211f5761211e61235f565b5b8360020a9150848211156121365761213561235f565b5b5061219b565b5060208310610133831016604e8410600b84101617156121715782820a90508381111561216c5761216b61235f565b5b61219b565b61217e8484846001612031565b925090508184048111156121955761219461235f565b5b81810290505b9392505050565b60006121ad8261223a565b91506121b88361223a565b9250817fffffffffffffffffffffffffffffffffffffffffffffffffffffffffffffffff04831182151516156121f1576121f061235f565b5b828202905092915050565b60006122078261221a565b9050919050565b60008115159050919050565b600073ffffffffffffffffffffffffffffffffffffffff82169050919050565b6000819050919050565b600061224f82612256565b9050919050565b60006122618261221a565b9050919050565b60006122738261227a565b9050919050565b60006122858261221a565b9050919050565b60006122978261229e565b9050919050565b60006122a98261221a565b9050919050565b60006122bb826122c2565b9050919050565b60006122cd8261221a565b9050919050565b60006122df826122e6565b9050919050565b60006122f18261221a565b9050919050565b60006123038261230a565b9050919050565b60006123158261221a565b9050919050565b60006123278261223a565b9050919050565b612337826123ec565b810181811067ffffffffffffffff82111715612356576123556123bd565b5b80604052505050565b7f4e487b7100000000000000000000000000000000000000000000000000000000600052601160045260246000fd5b7f4e487b7100000000000000000000000000000000000000000000000000000000600052601260045260246000fd5b7f4e487b7100000000000000000000000000000000000000000000000000000000600052604160045260246000fd5b6000601f19601f8301169050919050565b60008160011c9050919050565b7f496e73756666696369656e742045544800000000000000000000000000000000600082015250565b7f6572726f72000000000000000000000000000000000000000000000000000000600082015250565b7f4c6971756964697479203d203000000000000000000000000000000000000000600082015250565b7f53686f727466616c6c203e203000000000000000000000000000000000000000600082015250565b7f537570706c79206661696c656400000000000000000000000000000000000000600082015250565b7f536f6d65206572726f72206f6363757265640000000000000000000000000000600082015250565b7f52656465656d206661696c656400000000000000000000000000000000000000600082015250565b7f43616e6e6f7420626f72726f772073706563696669656420616d6f756e74206f60008201527f66206574682c20636865636b20636f6c6c65746572616c000000000000000000602082015250565b7f4f6e6c79206f776e65722063616e2063616c6c20746869730000000000000000600082015250565b6125aa8161220e565b81146125b557600080fd5b50565b6125c18161223a565b81146125cc57600080fd5b5056fea26469706673582212207591cb06bf5de32a9a638ac5506b691d4cee57b922410cb38e8adaaba350e5a964736f6c63430008040033",
  "linkReferences": {},
  "deployedLinkReferences": {}
}