{
  "_format": "hh-sol-artifact-1",
  "contractName": "contractLong",
  "sourceName": "contracts/contractLong.sol",
  "abi": [
    {
      "inputs": [
        {
          "internalType": "address",
          "name": "_cEth",
          "type": "address"
        },
        {
          "internalType": "address",
          "name": "_cTokenBorrow",
          "type": "address"
        },
        {
          "internalType": "address",
          "name": "_tokenBorrow",
          "type": "address"
        },
        {
          "internalType": "uint256",
          "name": "_decimals",
          "type": "uint256"
        }
      ],
      "stateMutability": "nonpayable",
      "type": "constructor"
    },
    {
      "inputs": [],
      "name": "Weth",
      "outputs": [
        {
          "internalType": "contract IERC20",
          "name": "",
          "type": "address"
        }
      ],
      "stateMutability": "view",
      "type": "function"
    },
    {
      "inputs": [],
      "name": "cEth",
      "outputs": [
        {
          "internalType": "contract CEth",
          "name": "",
          "type": "address"
        }
      ],
      "stateMutability": "view",
      "type": "function"
    },
    {
      "inputs": [],
      "name": "cTokenBorrow",
      "outputs": [
        {
          "internalType": "contract CErc20",
          "name": "",
          "type": "address"
        }
      ],
      "stateMutability": "view",
      "type": "function"
    },
    {
      "inputs": [
        {
          "internalType": "uint256",
          "name": "uniswapTransactionDeadline",
          "type": "uint256"
        }
      ],
      "name": "claimProfits",
      "outputs": [],
      "stateMutability": "nonpayable",
      "type": "function"
    },
    {
      "inputs": [],
      "name": "comptroller",
      "outputs": [
        {
          "internalType": "contract Comptroller",
          "name": "",
          "type": "address"
        }
      ],
      "stateMutability": "view",
      "type": "function"
    },
    {
      "inputs": [],
      "name": "decimals",
      "outputs": [
        {
          "internalType": "uint256",
          "name": "",
          "type": "uint256"
        }
      ],
      "stateMutability": "view",
      "type": "function"
    },
    {
      "inputs": [],
      "name": "getAccountLiquidity",
      "outputs": [
        {
          "internalType": "uint256",
          "name": "liquidity",
          "type": "uint256"
        },
        {
          "internalType": "uint256",
          "name": "shortfall",
          "type": "uint256"
        }
      ],
      "stateMutability": "view",
      "type": "function"
    },
    {
      "inputs": [],
      "name": "getBorrowBalance",
      "outputs": [
        {
          "internalType": "uint256",
          "name": "",
          "type": "uint256"
        }
      ],
      "stateMutability": "nonpayable",
      "type": "function"
    },
    {
      "inputs": [],
      "name": "getMaxBorrow",
      "outputs": [
        {
          "internalType": "uint256",
          "name": "",
          "type": "uint256"
        }
      ],
      "stateMutability": "view",
      "type": "function"
    },
    {
      "inputs": [],
      "name": "getSuppliedBalance",
      "outputs": [
        {
          "internalType": "uint256",
          "name": "",
          "type": "uint256"
        }
      ],
      "stateMutability": "nonpayable",
      "type": "function"
    },
    {
      "inputs": [
        {
          "internalType": "uint256",
          "name": "borrowAmount",
          "type": "uint256"
        },
        {
          "internalType": "uint256",
          "name": "uniswapTransactionDeadline",
          "type": "uint256"
        }
      ],
      "name": "goLong_ETH",
      "outputs": [],
      "stateMutability": "nonpayable",
      "type": "function"
    },
    {
      "inputs": [],
      "name": "pricefeed",
      "outputs": [
        {
          "internalType": "contract PriceFeed",
          "name": "",
          "type": "address"
        }
      ],
      "stateMutability": "view",
      "type": "function"
    },
    {
      "inputs": [],
      "name": "supply",
      "outputs": [],
      "stateMutability": "payable",
      "type": "function"
    },
    {
      "inputs": [],
      "name": "tokenBorrow",
      "outputs": [
        {
          "internalType": "contract IERC20",
          "name": "",
          "type": "address"
        }
      ],
      "stateMutability": "view",
      "type": "function"
    },
    {
      "inputs": [],
      "name": "uniswapRouter",
      "outputs": [
        {
          "internalType": "contract IUniswapV2Router",
          "name": "",
          "type": "address"
        }
      ],
      "stateMutability": "view",
      "type": "function"
    },
    {
      "stateMutability": "payable",
      "type": "receive"
    }
  ],
  "bytecode": "0x6080604052733d9819210a31b4961b30ef54be2aed79b9c9cd3b600460006101000a81548173ffffffffffffffffffffffffffffffffffffffff021916908373ffffffffffffffffffffffffffffffffffffffff16021790555073922018674c12a7f0d394ebeef9b58f186cde13c1600560006101000a81548173ffffffffffffffffffffffffffffffffffffffff021916908373ffffffffffffffffffffffffffffffffffffffff160217905550737a250d5630b4cf539739df2c5dacb4c659f2488d600660006101000a81548173ffffffffffffffffffffffffffffffffffffffff021916908373ffffffffffffffffffffffffffffffffffffffff16021790555073c02aaa39b223fe8d0a0e5c4f27ead9083c756cc2600760006101000a81548173ffffffffffffffffffffffffffffffffffffffff021916908373ffffffffffffffffffffffffffffffffffffffff1602179055503480156200016557600080fd5b5060405162002a6938038062002a6983398181016040528101906200018b91906200057a565b836000806101000a81548173ffffffffffffffffffffffffffffffffffffffff021916908373ffffffffffffffffffffffffffffffffffffffff16021790555082600160006101000a81548173ffffffffffffffffffffffffffffffffffffffff021916908373ffffffffffffffffffffffffffffffffffffffff16021790555081600260006101000a81548173ffffffffffffffffffffffffffffffffffffffff021916908373ffffffffffffffffffffffffffffffffffffffff160217905550806003819055506000600167ffffffffffffffff81111562000298577f4e487b7100000000000000000000000000000000000000000000000000000000600052604160045260246000fd5b604051908082528060200260200182016040528015620002c75781602001602082028036833780820191505090505b50905060008054906101000a900473ffffffffffffffffffffffffffffffffffffffff168160008151811062000326577f4e487b7100000000000000000000000000000000000000000000000000000000600052603260045260246000fd5b602002602001019073ffffffffffffffffffffffffffffffffffffffff16908173ffffffffffffffffffffffffffffffffffffffff16815250506000600460009054906101000a900473ffffffffffffffffffffffffffffffffffffffff1673ffffffffffffffffffffffffffffffffffffffff1663c2998238836040518263ffffffff1660e01b8152600401620003bf9190620006e7565b600060405180830381600087803b158015620003da57600080fd5b505af1158015620003ef573d6000803e3d6000fd5b505050506040513d6000823e3d601f19601f820116820180604052508101906200041a9190620005e6565b60008151811062000454577f4e487b7100000000000000000000000000000000000000000000000000000000600052603260045260246000fd5b6020026020010151146200049f576040517f08c379a000000000000000000000000000000000000000000000000000000000815260040162000496906200070b565b60405180910390fd5b5050505050620008e0565b6000620004c1620004bb8462000756565b6200072d565b90508083825260208201905082856020860282011115620004e157600080fd5b60005b85811015620005155781620004fa888262000563565b845260208401935060208301925050600181019050620004e4565b5050509392505050565b6000815190506200053081620008ac565b92915050565b600082601f8301126200054857600080fd5b81516200055a848260208601620004aa565b91505092915050565b6000815190506200057481620008c6565b92915050565b600080600080608085870312156200059157600080fd5b6000620005a1878288016200051f565b9450506020620005b4878288016200051f565b9350506040620005c7878288016200051f565b9250506060620005da8782880162000563565b91505092959194509250565b600060208284031215620005f957600080fd5b600082015167ffffffffffffffff8111156200061457600080fd5b620006228482850162000536565b91505092915050565b600062000639838362000645565b60208301905092915050565b6200065081620007cf565b82525050565b6000620006638262000795565b6200066f8185620007ad565b93506200067c8362000785565b8060005b83811015620006b35781516200069788826200062b565b9750620006a483620007a0565b92505060018101905062000680565b5085935050505092915050565b6000620006cf602083620007be565b9150620006dc8262000883565b602082019050919050565b6000602082019050818103600083015262000703818462000656565b905092915050565b600060208201905081810360008301526200072681620006c0565b9050919050565b6000620007396200074c565b90506200074782826200080d565b919050565b6000604051905090565b600067ffffffffffffffff82111562000774576200077362000843565b5b602082029050602081019050919050565b6000819050602082019050919050565b600081519050919050565b6000602082019050919050565b600082825260208201905092915050565b600082825260208201905092915050565b6000620007dc82620007e3565b9050919050565b600073ffffffffffffffffffffffffffffffffffffffff82169050919050565b6000819050919050565b620008188262000872565b810181811067ffffffffffffffff821117156200083a576200083962000843565b5b80604052505050565b7f4e487b7100000000000000000000000000000000000000000000000000000000600052604160045260246000fd5b6000601f19601f8301169050919050565b7f436f6d7074726f6c6c65722e656e7465724d61726b657473206661696c65642e600082015250565b620008b781620007cf565b8114620008c357600080fd5b50565b620008d18162000803565b8114620008dd57600080fd5b50565b61217980620008f06000396000f3fe6080604052600436106100ec5760003560e01c8063590f21131161008a578063af833d4211610059578063af833d42146102af578063ca206591146102da578063da839c9714610305578063fd6bac701461032e576100f3565b8063590f2113146102035780635fe3b5671461022e578063735de9f714610259578063a44026a314610284576100f3565b80632fd4cda7116100c65780632fd4cda714610156578063313ce56714610182578063349849a3146101ad5780634252b452146101d8576100f3565b8063047fc9aa146100f8578063239e55611461010257806324d6db471461012b576100f3565b366100f357005b600080fd5b610100610359565b005b34801561010e57600080fd5b506101296004803603810190610124919061178a565b6103dc565b005b34801561013757600080fd5b506101406108b0565b60405161014d9190611ace565b60405180910390f35b34801561016257600080fd5b5061016b6108d6565b604051610179929190611ce0565b60405180910390f35b34801561018e57600080fd5b506101976109df565b6040516101a49190611c6b565b60405180910390f35b3480156101b957600080fd5b506101c26109e5565b6040516101cf9190611ace565b60405180910390f35b3480156101e457600080fd5b506101ed610a0b565b6040516101fa9190611c6b565b60405180910390f35b34801561020f57600080fd5b50610218610abe565b6040516102259190611b04565b60405180910390f35b34801561023a57600080fd5b50610243610ae4565b6040516102509190611ab3565b60405180910390f35b34801561026557600080fd5b5061026e610b0a565b60405161027b9190611ae9565b60405180910390f35b34801561029057600080fd5b50610299610b30565b6040516102a69190611a98565b60405180910390f35b3480156102bb57600080fd5b506102c4610b54565b6040516102d19190611c6b565b60405180910390f35b3480156102e657600080fd5b506102ef610dc0565b6040516102fc9190611c6b565b60405180910390f35b34801561031157600080fd5b5061032c60048036038101906103279190611738565b610e74565b005b34801561033a57600080fd5b506103436115d3565b6040516103509190611a7d565b60405180910390f35b60008054906101000a900473ffffffffffffffffffffffffffffffffffffffff1673ffffffffffffffffffffffffffffffffffffffff16631249c58b346040518263ffffffff1660e01b81526004016000604051808303818588803b1580156103c157600080fd5b505af11580156103d5573d6000803e3d6000fd5b5050505050565b6000600160009054906101000a900473ffffffffffffffffffffffffffffffffffffffff1673ffffffffffffffffffffffffffffffffffffffff1663c5ebeaec846040518263ffffffff1660e01b81526004016104399190611c6b565b602060405180830381600087803b15801561045357600080fd5b505af1158015610467573d6000803e3d6000fd5b505050506040513d601f19601f8201168201806040525081019061048b9190611761565b146104cb576040517f08c379a00000000000000000000000000000000000000000000000000000000081526004016104c290611bcb565b60405180910390fd5b6000600260009054906101000a900473ffffffffffffffffffffffffffffffffffffffff1673ffffffffffffffffffffffffffffffffffffffff166370a08231306040518263ffffffff1660e01b81526004016105289190611a39565b60206040518083038186803b15801561054057600080fd5b505afa158015610554573d6000803e3d6000fd5b505050506040513d601f19601f820116820180604052508101906105789190611761565b9050600260009054906101000a900473ffffffffffffffffffffffffffffffffffffffff1673ffffffffffffffffffffffffffffffffffffffff1663095ea7b3600660009054906101000a900473ffffffffffffffffffffffffffffffffffffffff16836040518363ffffffff1660e01b81526004016105f9929190611a54565b602060405180830381600087803b15801561061357600080fd5b505af1158015610627573d6000803e3d6000fd5b505050506040513d601f19601f8201168201806040525081019061064b919061170f565b506000600267ffffffffffffffff81111561068f577f4e487b7100000000000000000000000000000000000000000000000000000000600052604160045260246000fd5b6040519080825280602002602001820160405280156106bd5781602001602082028036833780820191505090505b509050600260009054906101000a900473ffffffffffffffffffffffffffffffffffffffff168160008151811061071d577f4e487b7100000000000000000000000000000000000000000000000000000000600052603260045260246000fd5b602002602001019073ffffffffffffffffffffffffffffffffffffffff16908173ffffffffffffffffffffffffffffffffffffffff1681525050600760009054906101000a900473ffffffffffffffffffffffffffffffffffffffff16816001815181106107b4577f4e487b7100000000000000000000000000000000000000000000000000000000600052603260045260246000fd5b602002602001019073ffffffffffffffffffffffffffffffffffffffff16908173ffffffffffffffffffffffffffffffffffffffff1681525050600660009054906101000a900473ffffffffffffffffffffffffffffffffffffffff1673ffffffffffffffffffffffffffffffffffffffff166318cbafe58360018430886040518663ffffffff1660e01b8152600401610852959493929190611c86565b600060405180830381600087803b15801561086c57600080fd5b505af1158015610880573d6000803e3d6000fd5b505050506040513d6000823e3d601f19601f820116820180604052508101906108a991906116ce565b5050505050565b600260009054906101000a900473ffffffffffffffffffffffffffffffffffffffff1681565b6000806000806000600460009054906101000a900473ffffffffffffffffffffffffffffffffffffffff1673ffffffffffffffffffffffffffffffffffffffff16635ec88c79306040518263ffffffff1660e01b81526004016109399190611a39565b60606040518083038186803b15801561095157600080fd5b505afa158015610965573d6000803e3d6000fd5b505050506040513d601f19601f8201168201806040525081019061098991906117c6565b925092509250600083146109d2576040517f08c379a00000000000000000000000000000000000000000000000000000000081526004016109c990611b6b565b60405180910390fd5b8181945094505050509091565b60035481565b600760009054906101000a900473ffffffffffffffffffffffffffffffffffffffff1681565b60008060009054906101000a900473ffffffffffffffffffffffffffffffffffffffff1673ffffffffffffffffffffffffffffffffffffffff16633af9e669306040518263ffffffff1660e01b8152600401610a679190611a39565b602060405180830381600087803b158015610a8157600080fd5b505af1158015610a95573d6000803e3d6000fd5b505050506040513d601f19601f82011682018060405250810190610ab99190611761565b905090565b600560009054906101000a900473ffffffffffffffffffffffffffffffffffffffff1681565b600460009054906101000a900473ffffffffffffffffffffffffffffffffffffffff1681565b600660009054906101000a900473ffffffffffffffffffffffffffffffffffffffff1681565b60008054906101000a900473ffffffffffffffffffffffffffffffffffffffff1681565b600080600080600460009054906101000a900473ffffffffffffffffffffffffffffffffffffffff1673ffffffffffffffffffffffffffffffffffffffff16635ec88c79306040518263ffffffff1660e01b8152600401610bb59190611a39565b60606040518083038186803b158015610bcd57600080fd5b505afa158015610be1573d6000803e3d6000fd5b505050506040513d601f19601f82011682018060405250810190610c0591906117c6565b92509250925060008314610c4e576040517f08c379a0000000000000000000000000000000000000000000000000000000008152600401610c4590611beb565b60405180910390fd5b60008211610c91576040517f08c379a0000000000000000000000000000000000000000000000000000000008152600401610c8890611b8b565b60405180910390fd5b60008114610cd4576040517f08c379a0000000000000000000000000000000000000000000000000000000008152600401610ccb90611bab565b60405180910390fd5b6000600560009054906101000a900473ffffffffffffffffffffffffffffffffffffffff1673ffffffffffffffffffffffffffffffffffffffff1663fc57d4df600160009054906101000a900473ffffffffffffffffffffffffffffffffffffffff166040518263ffffffff1660e01b8152600401610d539190611a39565b60206040518083038186803b158015610d6b57600080fd5b505afa158015610d7f573d6000803e3d6000fd5b505050506040513d601f19601f82011682018060405250810190610da39190611761565b905060008184610db39190611da4565b9050809550505050505090565b6000600160009054906101000a900473ffffffffffffffffffffffffffffffffffffffff1673ffffffffffffffffffffffffffffffffffffffff166317bfdfbc306040518263ffffffff1660e01b8152600401610e1d9190611a39565b602060405180830381600087803b158015610e3757600080fd5b505af1158015610e4b573d6000803e3d6000fd5b505050506040513d601f19601f82011682018060405250810190610e6f9190611761565b905090565b6000600267ffffffffffffffff811115610eb7577f4e487b7100000000000000000000000000000000000000000000000000000000600052604160045260246000fd5b604051908082528060200260200182016040528015610ee55781602001602082028036833780820191505090505b509050600760009054906101000a900473ffffffffffffffffffffffffffffffffffffffff1681600081518110610f45577f4e487b7100000000000000000000000000000000000000000000000000000000600052603260045260246000fd5b602002602001019073ffffffffffffffffffffffffffffffffffffffff16908173ffffffffffffffffffffffffffffffffffffffff1681525050600260009054906101000a900473ffffffffffffffffffffffffffffffffffffffff1681600181518110610fdc577f4e487b7100000000000000000000000000000000000000000000000000000000600052603260045260246000fd5b602002602001019073ffffffffffffffffffffffffffffffffffffffff16908173ffffffffffffffffffffffffffffffffffffffff1681525050600660009054906101000a900473ffffffffffffffffffffffffffffffffffffffff1673ffffffffffffffffffffffffffffffffffffffff16637ff36ab54760018430876040518663ffffffff1660e01b81526004016110799493929190611b1f565b6000604051808303818588803b15801561109257600080fd5b505af11580156110a6573d6000803e3d6000fd5b50505050506040513d6000823e3d601f19601f820116820180604052508101906110d091906116ce565b506000600160009054906101000a900473ffffffffffffffffffffffffffffffffffffffff1673ffffffffffffffffffffffffffffffffffffffff166317bfdfbc306040518263ffffffff1660e01b815260040161112e9190611a39565b602060405180830381600087803b15801561114857600080fd5b505af115801561115c573d6000803e3d6000fd5b505050506040513d601f19601f820116820180604052508101906111809190611761565b905080600260009054906101000a900473ffffffffffffffffffffffffffffffffffffffff1673ffffffffffffffffffffffffffffffffffffffff166370a08231306040518263ffffffff1660e01b81526004016111de9190611a39565b60206040518083038186803b1580156111f657600080fd5b505afa15801561120a573d6000803e3d6000fd5b505050506040513d601f19601f8201168201806040525081019061122e9190611761565b1161126e576040517f08c379a000000000000000000000000000000000000000000000000000000000815260040161126590611c4b565b60405180910390fd5b600260009054906101000a900473ffffffffffffffffffffffffffffffffffffffff1673ffffffffffffffffffffffffffffffffffffffff1663095ea7b3600160009054906101000a900473ffffffffffffffffffffffffffffffffffffffff16836040518363ffffffff1660e01b81526004016112ed929190611a54565b602060405180830381600087803b15801561130757600080fd5b505af115801561131b573d6000803e3d6000fd5b505050506040513d601f19601f8201168201806040525081019061133f919061170f565b506000600160009054906101000a900473ffffffffffffffffffffffffffffffffffffffff1673ffffffffffffffffffffffffffffffffffffffff16630e752702836040518263ffffffff1660e01b815260040161139d9190611c6b565b602060405180830381600087803b1580156113b757600080fd5b505af11580156113cb573d6000803e3d6000fd5b505050506040513d601f19601f820116820180604052508101906113ef9190611761565b1461142f576040517f08c379a000000000000000000000000000000000000000000000000000000000815260040161142690611c2b565b60405180910390fd5b60008060009054906101000a900473ffffffffffffffffffffffffffffffffffffffff1673ffffffffffffffffffffffffffffffffffffffff16633af9e669306040518263ffffffff1660e01b815260040161148b9190611a39565b602060405180830381600087803b1580156114a557600080fd5b505af11580156114b9573d6000803e3d6000fd5b505050506040513d601f19601f820116820180604052508101906114dd9190611761565b905060008060009054906101000a900473ffffffffffffffffffffffffffffffffffffffff1673ffffffffffffffffffffffffffffffffffffffff1663852a12e3836040518263ffffffff1660e01b815260040161153b9190611c6b565b602060405180830381600087803b15801561155557600080fd5b505af1158015611569573d6000803e3d6000fd5b505050506040513d601f19601f8201168201806040525081019061158d9190611761565b146115cd576040517f08c379a00000000000000000000000000000000000000000000000000000000081526004016115c490611c0b565b60405180910390fd5b50505050565b600160009054906101000a900473ffffffffffffffffffffffffffffffffffffffff1681565b600061160c61160784611d2e565b611d09565b9050808382526020820190508285602086028201111561162b57600080fd5b60005b8581101561165b578161164188826116b9565b84526020840193506020830192505060018101905061162e565b5050509392505050565b600082601f83011261167657600080fd5b81516116868482602086016115f9565b91505092915050565b60008151905061169e81612115565b92915050565b6000813590506116b38161212c565b92915050565b6000815190506116c88161212c565b92915050565b6000602082840312156116e057600080fd5b600082015167ffffffffffffffff8111156116fa57600080fd5b61170684828501611665565b91505092915050565b60006020828403121561172157600080fd5b600061172f8482850161168f565b91505092915050565b60006020828403121561174a57600080fd5b6000611758848285016116a4565b91505092915050565b60006020828403121561177357600080fd5b6000611781848285016116b9565b91505092915050565b6000806040838503121561179d57600080fd5b60006117ab858286016116a4565b92505060206117bc858286016116a4565b9150509250929050565b6000806000606084860312156117db57600080fd5b60006117e9868287016116b9565b93505060206117fa868287016116b9565b925050604061180b868287016116b9565b9150509250925092565b6000611821838361182d565b60208301905092915050565b61183681611dd5565b82525050565b61184581611dd5565b82525050565b600061185682611d6a565b6118608185611d82565b935061186b83611d5a565b8060005b8381101561189c5781516118838882611815565b975061188e83611d75565b92505060018101905061186f565b5085935050505092915050565b6118b281611e1d565b82525050565b6118c181611e41565b82525050565b6118d081611e65565b82525050565b6118df81611e89565b82525050565b6118ee81611ead565b82525050565b6118fd81611ed1565b82525050565b61190c81611ef5565b82525050565b600061191f600583611d93565b915061192a82611fa7565b602082019050919050565b6000611942600d83611d93565b915061194d82611fd0565b602082019050919050565b6000611965600d83611d93565b915061197082611ff9565b602082019050919050565b6000611988603983611d93565b915061199382612022565b604082019050919050565b60006119ab601283611d93565b91506119b682612071565b602082019050919050565b60006119ce600d83611d93565b91506119d98261209a565b602082019050919050565b60006119f1600c83611d93565b91506119fc826120c3565b602082019050919050565b6000611a14601083611d93565b9150611a1f826120ec565b602082019050919050565b611a3381611e13565b82525050565b6000602082019050611a4e600083018461183c565b92915050565b6000604082019050611a69600083018561183c565b611a766020830184611a2a565b9392505050565b6000602082019050611a9260008301846118a9565b92915050565b6000602082019050611aad60008301846118b8565b92915050565b6000602082019050611ac860008301846118c7565b92915050565b6000602082019050611ae360008301846118d6565b92915050565b6000602082019050611afe60008301846118e5565b92915050565b6000602082019050611b1960008301846118f4565b92915050565b6000608082019050611b346000830187611903565b8181036020830152611b46818661184b565b9050611b55604083018561183c565b611b626060830184611a2a565b95945050505050565b60006020820190508181036000830152611b8481611912565b9050919050565b60006020820190508181036000830152611ba481611935565b9050919050565b60006020820190508181036000830152611bc481611958565b9050919050565b60006020820190508181036000830152611be48161197b565b9050919050565b60006020820190508181036000830152611c048161199e565b9050919050565b60006020820190508181036000830152611c24816119c1565b9050919050565b60006020820190508181036000830152611c44816119e4565b9050919050565b60006020820190508181036000830152611c6481611a07565b9050919050565b6000602082019050611c806000830184611a2a565b92915050565b600060a082019050611c9b6000830188611a2a565b611ca86020830187611903565b8181036040830152611cba818661184b565b9050611cc9606083018561183c565b611cd66080830184611a2a565b9695505050505050565b6000604082019050611cf56000830185611a2a565b611d026020830184611a2a565b9392505050565b6000611d13611d24565b9050611d1f8282611f07565b919050565b6000604051905090565b600067ffffffffffffffff821115611d4957611d48611f67565b5b602082029050602081019050919050565b6000819050602082019050919050565b600081519050919050565b6000602082019050919050565b600082825260208201905092915050565b600082825260208201905092915050565b6000611daf82611e13565b9150611dba83611e13565b925082611dca57611dc9611f38565b5b828204905092915050565b6000611de082611df3565b9050919050565b60008115159050919050565b600073ffffffffffffffffffffffffffffffffffffffff82169050919050565b6000819050919050565b6000611e2882611e2f565b9050919050565b6000611e3a82611df3565b9050919050565b6000611e4c82611e53565b9050919050565b6000611e5e82611df3565b9050919050565b6000611e7082611e77565b9050919050565b6000611e8282611df3565b9050919050565b6000611e9482611e9b565b9050919050565b6000611ea682611df3565b9050919050565b6000611eb882611ebf565b9050919050565b6000611eca82611df3565b9050919050565b6000611edc82611ee3565b9050919050565b6000611eee82611df3565b9050919050565b6000611f0082611e13565b9050919050565b611f1082611f96565b810181811067ffffffffffffffff82111715611f2f57611f2e611f67565b5b80604052505050565b7f4e487b7100000000000000000000000000000000000000000000000000000000600052601260045260246000fd5b7f4e487b7100000000000000000000000000000000000000000000000000000000600052604160045260246000fd5b6000601f19601f8301169050919050565b7f6572726f72000000000000000000000000000000000000000000000000000000600082015250565b7f4c6971756964697479203d203000000000000000000000000000000000000000600082015250565b7f53686f727466616c6c203e203000000000000000000000000000000000000000600082015250565b7f43616e6e6f7420626f72726f772073706563696669656420616d6f756e74206f60008201527f662061737365742c20636865636b20636f6c6c65746572616c00000000000000602082015250565b7f536f6d65206572726f72206f6363757265640000000000000000000000000000600082015250565b7f52656465656d206661696c656400000000000000000000000000000000000000600082015250565b7f5265706179206661696c65640000000000000000000000000000000000000000600082015250565b7f496e73756666696369656e742044414900000000000000000000000000000000600082015250565b61211e81611de7565b811461212957600080fd5b50565b61213581611e13565b811461214057600080fd5b5056fea2646970667358221220df12e65d7c79ef02198f776810f9c653afaa299367289b547a0e9b21070b7cfa64736f6c63430008040033",
  "linkReferences": {},
  "deployedLinkReferences": {}
}